{
  "contractName": "GovernanceContract",
  "abi": [
    {
      "inputs": [
        {
          "internalType": "contract IVotes",
          "name": "_token",
          "type": "address"
        },
        {
          "internalType": "contract TimelockController",
          "name": "_timelock",
          "type": "address"
        },
        {
          "internalType": "uint256",
          "name": "_timedelay",
          "type": "uint256"
        },
        {
          "internalType": "uint256",
          "name": "_timePeriod",
          "type": "uint256"
        },
        {
          "internalType": "uint256",
          "name": "_quorumpercentage",
          "type": "uint256"
        }
      ],
      "stateMutability": "nonpayable",
      "type": "constructor"
    },
    {
      "anonymous": false,
      "inputs": [
        {
          "indexed": false,
          "internalType": "uint256",
          "name": "proposalId",
          "type": "uint256"
        }
      ],
      "name": "ProposalCanceled",
      "type": "event"
    },
    {
      "anonymous": false,
      "inputs": [
        {
          "indexed": false,
          "internalType": "uint256",
          "name": "proposalId",
          "type": "uint256"
        },
        {
          "indexed": false,
          "internalType": "address",
          "name": "proposer",
          "type": "address"
        },
        {
          "indexed": false,
          "internalType": "address[]",
          "name": "targets",
          "type": "address[]"
        },
        {
          "indexed": false,
          "internalType": "uint256[]",
          "name": "values",
          "type": "uint256[]"
        },
        {
          "indexed": false,
          "internalType": "string[]",
          "name": "signatures",
          "type": "string[]"
        },
        {
          "indexed": false,
          "internalType": "bytes[]",
          "name": "calldatas",
          "type": "bytes[]"
        },
        {
          "indexed": false,
          "internalType": "uint256",
          "name": "startBlock",
          "type": "uint256"
        },
        {
          "indexed": false,
          "internalType": "uint256",
          "name": "endBlock",
          "type": "uint256"
        },
        {
          "indexed": false,
          "internalType": "string",
          "name": "description",
          "type": "string"
        }
      ],
      "name": "ProposalCreated",
      "type": "event"
    },
    {
      "anonymous": false,
      "inputs": [
        {
          "indexed": false,
          "internalType": "uint256",
          "name": "proposalId",
          "type": "uint256"
        }
      ],
      "name": "ProposalExecuted",
      "type": "event"
    },
    {
      "anonymous": false,
      "inputs": [
        {
          "indexed": false,
          "internalType": "uint256",
          "name": "proposalId",
          "type": "uint256"
        },
        {
          "indexed": false,
          "internalType": "uint256",
          "name": "eta",
          "type": "uint256"
        }
      ],
      "name": "ProposalQueued",
      "type": "event"
    },
    {
      "anonymous": false,
      "inputs": [
        {
          "indexed": false,
          "internalType": "uint256",
          "name": "oldProposalThreshold",
          "type": "uint256"
        },
        {
          "indexed": false,
          "internalType": "uint256",
          "name": "newProposalThreshold",
          "type": "uint256"
        }
      ],
      "name": "ProposalThresholdSet",
      "type": "event"
    },
    {
      "anonymous": false,
      "inputs": [
        {
          "indexed": false,
          "internalType": "uint256",
          "name": "oldQuorumNumerator",
          "type": "uint256"
        },
        {
          "indexed": false,
          "internalType": "uint256",
          "name": "newQuorumNumerator",
          "type": "uint256"
        }
      ],
      "name": "QuorumNumeratorUpdated",
      "type": "event"
    },
    {
      "anonymous": false,
      "inputs": [
        {
          "indexed": false,
          "internalType": "address",
          "name": "oldTimelock",
          "type": "address"
        },
        {
          "indexed": false,
          "internalType": "address",
          "name": "newTimelock",
          "type": "address"
        }
      ],
      "name": "TimelockChange",
      "type": "event"
    },
    {
      "anonymous": false,
      "inputs": [
        {
          "indexed": true,
          "internalType": "address",
          "name": "voter",
          "type": "address"
        },
        {
          "indexed": false,
          "internalType": "uint256",
          "name": "proposalId",
          "type": "uint256"
        },
        {
          "indexed": false,
          "internalType": "uint8",
          "name": "support",
          "type": "uint8"
        },
        {
          "indexed": false,
          "internalType": "uint256",
          "name": "weight",
          "type": "uint256"
        },
        {
          "indexed": false,
          "internalType": "string",
          "name": "reason",
          "type": "string"
        }
      ],
      "name": "VoteCast",
      "type": "event"
    },
    {
      "anonymous": false,
      "inputs": [
        {
          "indexed": false,
          "internalType": "uint256",
          "name": "oldVotingDelay",
          "type": "uint256"
        },
        {
          "indexed": false,
          "internalType": "uint256",
          "name": "newVotingDelay",
          "type": "uint256"
        }
      ],
      "name": "VotingDelaySet",
      "type": "event"
    },
    {
      "anonymous": false,
      "inputs": [
        {
          "indexed": false,
          "internalType": "uint256",
          "name": "oldVotingPeriod",
          "type": "uint256"
        },
        {
          "indexed": false,
          "internalType": "uint256",
          "name": "newVotingPeriod",
          "type": "uint256"
        }
      ],
      "name": "VotingPeriodSet",
      "type": "event"
    },
    {
      "inputs": [],
      "name": "BALLOT_TYPEHASH",
      "outputs": [
        {
          "internalType": "bytes32",
          "name": "",
          "type": "bytes32"
        }
      ],
      "stateMutability": "view",
      "type": "function",
      "constant": true
    },
    {
      "inputs": [],
      "name": "COUNTING_MODE",
      "outputs": [
        {
          "internalType": "string",
          "name": "",
          "type": "string"
        }
      ],
      "stateMutability": "pure",
      "type": "function",
      "constant": true
    },
    {
      "inputs": [
        {
          "internalType": "uint256",
          "name": "proposalId",
          "type": "uint256"
        },
        {
          "internalType": "uint8",
          "name": "support",
          "type": "uint8"
        }
      ],
      "name": "castVote",
      "outputs": [
        {
          "internalType": "uint256",
          "name": "",
          "type": "uint256"
        }
      ],
      "stateMutability": "nonpayable",
      "type": "function"
    },
    {
      "inputs": [
        {
          "internalType": "uint256",
          "name": "proposalId",
          "type": "uint256"
        },
        {
          "internalType": "uint8",
          "name": "support",
          "type": "uint8"
        },
        {
          "internalType": "uint8",
          "name": "v",
          "type": "uint8"
        },
        {
          "internalType": "bytes32",
          "name": "r",
          "type": "bytes32"
        },
        {
          "internalType": "bytes32",
          "name": "s",
          "type": "bytes32"
        }
      ],
      "name": "castVoteBySig",
      "outputs": [
        {
          "internalType": "uint256",
          "name": "",
          "type": "uint256"
        }
      ],
      "stateMutability": "nonpayable",
      "type": "function"
    },
    {
      "inputs": [
        {
          "internalType": "uint256",
          "name": "proposalId",
          "type": "uint256"
        },
        {
          "internalType": "uint8",
          "name": "support",
          "type": "uint8"
        },
        {
          "internalType": "string",
          "name": "reason",
          "type": "string"
        }
      ],
      "name": "castVoteWithReason",
      "outputs": [
        {
          "internalType": "uint256",
          "name": "",
          "type": "uint256"
        }
      ],
      "stateMutability": "nonpayable",
      "type": "function"
    },
    {
      "inputs": [
        {
          "internalType": "address[]",
          "name": "targets",
          "type": "address[]"
        },
        {
          "internalType": "uint256[]",
          "name": "values",
          "type": "uint256[]"
        },
        {
          "internalType": "bytes[]",
          "name": "calldatas",
          "type": "bytes[]"
        },
        {
          "internalType": "bytes32",
          "name": "descriptionHash",
          "type": "bytes32"
        }
      ],
      "name": "execute",
      "outputs": [
        {
          "internalType": "uint256",
          "name": "",
          "type": "uint256"
        }
      ],
      "stateMutability": "payable",
      "type": "function",
      "payable": true
    },
    {
      "inputs": [
        {
          "internalType": "uint256",
          "name": "proposalId",
          "type": "uint256"
        },
        {
          "internalType": "address",
          "name": "account",
          "type": "address"
        }
      ],
      "name": "hasVoted",
      "outputs": [
        {
          "internalType": "bool",
          "name": "",
          "type": "bool"
        }
      ],
      "stateMutability": "view",
      "type": "function",
      "constant": true
    },
    {
      "inputs": [
        {
          "internalType": "address[]",
          "name": "targets",
          "type": "address[]"
        },
        {
          "internalType": "uint256[]",
          "name": "values",
          "type": "uint256[]"
        },
        {
          "internalType": "bytes[]",
          "name": "calldatas",
          "type": "bytes[]"
        },
        {
          "internalType": "bytes32",
          "name": "descriptionHash",
          "type": "bytes32"
        }
      ],
      "name": "hashProposal",
      "outputs": [
        {
          "internalType": "uint256",
          "name": "",
          "type": "uint256"
        }
      ],
      "stateMutability": "pure",
      "type": "function",
      "constant": true
    },
    {
      "inputs": [],
      "name": "name",
      "outputs": [
        {
          "internalType": "string",
          "name": "",
          "type": "string"
        }
      ],
      "stateMutability": "view",
      "type": "function",
      "constant": true
    },
    {
      "inputs": [
        {
          "internalType": "uint256",
          "name": "proposalId",
          "type": "uint256"
        }
      ],
      "name": "proposalDeadline",
      "outputs": [
        {
          "internalType": "uint256",
          "name": "",
          "type": "uint256"
        }
      ],
      "stateMutability": "view",
      "type": "function",
      "constant": true
    },
    {
      "inputs": [
        {
          "internalType": "uint256",
          "name": "proposalId",
          "type": "uint256"
        }
      ],
      "name": "proposalEta",
      "outputs": [
        {
          "internalType": "uint256",
          "name": "",
          "type": "uint256"
        }
      ],
      "stateMutability": "view",
      "type": "function",
      "constant": true
    },
    {
      "inputs": [
        {
          "internalType": "uint256",
          "name": "proposalId",
          "type": "uint256"
        }
      ],
      "name": "proposalSnapshot",
      "outputs": [
        {
          "internalType": "uint256",
          "name": "",
          "type": "uint256"
        }
      ],
      "stateMutability": "view",
      "type": "function",
      "constant": true
    },
    {
      "inputs": [
        {
          "internalType": "uint256",
          "name": "proposalId",
          "type": "uint256"
        }
      ],
      "name": "proposalVotes",
      "outputs": [
        {
          "internalType": "uint256",
          "name": "againstVotes",
          "type": "uint256"
        },
        {
          "internalType": "uint256",
          "name": "forVotes",
          "type": "uint256"
        },
        {
          "internalType": "uint256",
          "name": "abstainVotes",
          "type": "uint256"
        }
      ],
      "stateMutability": "view",
      "type": "function",
      "constant": true
    },
    {
      "inputs": [
        {
          "internalType": "address[]",
          "name": "targets",
          "type": "address[]"
        },
        {
          "internalType": "uint256[]",
          "name": "values",
          "type": "uint256[]"
        },
        {
          "internalType": "bytes[]",
          "name": "calldatas",
          "type": "bytes[]"
        },
        {
          "internalType": "bytes32",
          "name": "descriptionHash",
          "type": "bytes32"
        }
      ],
      "name": "queue",
      "outputs": [
        {
          "internalType": "uint256",
          "name": "",
          "type": "uint256"
        }
      ],
      "stateMutability": "nonpayable",
      "type": "function"
    },
    {
      "inputs": [],
      "name": "quorumDenominator",
      "outputs": [
        {
          "internalType": "uint256",
          "name": "",
          "type": "uint256"
        }
      ],
      "stateMutability": "view",
      "type": "function",
      "constant": true
    },
    {
      "inputs": [],
      "name": "quorumNumerator",
      "outputs": [
        {
          "internalType": "uint256",
          "name": "",
          "type": "uint256"
        }
      ],
      "stateMutability": "view",
      "type": "function",
      "constant": true
    },
    {
      "inputs": [
        {
          "internalType": "address",
          "name": "target",
          "type": "address"
        },
        {
          "internalType": "uint256",
          "name": "value",
          "type": "uint256"
        },
        {
          "internalType": "bytes",
          "name": "data",
          "type": "bytes"
        }
      ],
      "name": "relay",
      "outputs": [],
      "stateMutability": "nonpayable",
      "type": "function"
    },
    {
      "inputs": [
        {
          "internalType": "uint256",
          "name": "newProposalThreshold",
          "type": "uint256"
        }
      ],
      "name": "setProposalThreshold",
      "outputs": [],
      "stateMutability": "nonpayable",
      "type": "function"
    },
    {
      "inputs": [
        {
          "internalType": "uint256",
          "name": "newVotingDelay",
          "type": "uint256"
        }
      ],
      "name": "setVotingDelay",
      "outputs": [],
      "stateMutability": "nonpayable",
      "type": "function"
    },
    {
      "inputs": [
        {
          "internalType": "uint256",
          "name": "newVotingPeriod",
          "type": "uint256"
        }
      ],
      "name": "setVotingPeriod",
      "outputs": [],
      "stateMutability": "nonpayable",
      "type": "function"
    },
    {
      "inputs": [],
      "name": "timelock",
      "outputs": [
        {
          "internalType": "address",
          "name": "",
          "type": "address"
        }
      ],
      "stateMutability": "view",
      "type": "function",
      "constant": true
    },
    {
      "inputs": [],
      "name": "token",
      "outputs": [
        {
          "internalType": "contract IVotes",
          "name": "",
          "type": "address"
        }
      ],
      "stateMutability": "view",
      "type": "function",
      "constant": true
    },
    {
      "inputs": [
        {
          "internalType": "uint256",
          "name": "newQuorumNumerator",
          "type": "uint256"
        }
      ],
      "name": "updateQuorumNumerator",
      "outputs": [],
      "stateMutability": "nonpayable",
      "type": "function"
    },
    {
      "inputs": [
        {
          "internalType": "contract TimelockController",
          "name": "newTimelock",
          "type": "address"
        }
      ],
      "name": "updateTimelock",
      "outputs": [],
      "stateMutability": "nonpayable",
      "type": "function"
    },
    {
      "inputs": [],
      "name": "version",
      "outputs": [
        {
          "internalType": "string",
          "name": "",
          "type": "string"
        }
      ],
      "stateMutability": "view",
      "type": "function",
      "constant": true
    },
    {
      "stateMutability": "payable",
      "type": "receive",
      "payable": true
    },
    {
      "inputs": [],
      "name": "votingDelay",
      "outputs": [
        {
          "internalType": "uint256",
          "name": "",
          "type": "uint256"
        }
      ],
      "stateMutability": "view",
      "type": "function",
      "constant": true
    },
    {
      "inputs": [],
      "name": "votingPeriod",
      "outputs": [
        {
          "internalType": "uint256",
          "name": "",
          "type": "uint256"
        }
      ],
      "stateMutability": "view",
      "type": "function",
      "constant": true
    },
    {
      "inputs": [
        {
          "internalType": "uint256",
          "name": "blockNumber",
          "type": "uint256"
        }
      ],
      "name": "quorum",
      "outputs": [
        {
          "internalType": "uint256",
          "name": "",
          "type": "uint256"
        }
      ],
      "stateMutability": "view",
      "type": "function",
      "constant": true
    },
    {
      "inputs": [
        {
          "internalType": "address",
          "name": "account",
          "type": "address"
        },
        {
          "internalType": "uint256",
          "name": "blockNumber",
          "type": "uint256"
        }
      ],
      "name": "getVotes",
      "outputs": [
        {
          "internalType": "uint256",
          "name": "",
          "type": "uint256"
        }
      ],
      "stateMutability": "view",
      "type": "function",
      "constant": true
    },
    {
      "inputs": [
        {
          "internalType": "uint256",
          "name": "proposalId",
          "type": "uint256"
        }
      ],
      "name": "state",
      "outputs": [
        {
          "internalType": "enum IGovernor.ProposalState",
          "name": "",
          "type": "uint8"
        }
      ],
      "stateMutability": "view",
      "type": "function",
      "constant": true
    },
    {
      "inputs": [
        {
          "internalType": "address[]",
          "name": "targets",
          "type": "address[]"
        },
        {
          "internalType": "uint256[]",
          "name": "values",
          "type": "uint256[]"
        },
        {
          "internalType": "bytes[]",
          "name": "calldatas",
          "type": "bytes[]"
        },
        {
          "internalType": "string",
          "name": "description",
          "type": "string"
        }
      ],
      "name": "propose",
      "outputs": [
        {
          "internalType": "uint256",
          "name": "",
          "type": "uint256"
        }
      ],
      "stateMutability": "nonpayable",
      "type": "function"
    },
    {
      "inputs": [],
      "name": "proposalThreshold",
      "outputs": [
        {
          "internalType": "uint256",
          "name": "",
          "type": "uint256"
        }
      ],
      "stateMutability": "view",
      "type": "function",
      "constant": true
    },
    {
      "inputs": [
        {
          "internalType": "bytes4",
          "name": "interfaceId",
          "type": "bytes4"
        }
      ],
      "name": "supportsInterface",
      "outputs": [
        {
          "internalType": "bool",
          "name": "",
          "type": "bool"
        }
      ],
      "stateMutability": "view",
      "type": "function",
      "constant": true
    }
  ],
  "bytecode": "0x6101606040523480156200001257600080fd5b5060405162005b2a38038062005b2a83398181016040528101906200003891906200068f565b838186858560006040518060400160405280601281526020017f476f7665726e616e6365436f6e747261637400000000000000000000000000008152508062000086620001ed60201b60201c565b60008280519060200120905060008280519060200120905060007f8b73c3c69bb8fe3d512ecc4cf759cc79239f7b179b0ffacaa9a75d522b39400f90508260e081815250508161010081815250504660a08181525050620000ef8184846200022a60201b60201c565b608081815250503073ffffffffffffffffffffffffffffffffffffffff1660c08173ffffffffffffffffffffffffffffffffffffffff16815250508061012081815250505050505050806000908051906020019062000150929190620004cd565b505062000163836200026660201b60201c565b6200017482620002ad60201b60201c565b62000185816200033a60201b60201c565b5050508073ffffffffffffffffffffffffffffffffffffffff166101408173ffffffffffffffffffffffffffffffffffffffff168152505050620001cf816200038160201b60201c565b50620001e1816200042360201b60201c565b505050505050620009d7565b60606040518060400160405280600181526020017f3100000000000000000000000000000000000000000000000000000000000000815250905090565b600083838346306040516020016200024795949392919062000754565b6040516020818303038152906040528051906020012090509392505050565b7fc565b045403dc03c2eea82b81a0465edad9e2e7fc4d97e11421c209da93d7a93600254826040516200029b929190620007b1565b60405180910390a18060028190555050565b60008111620002f3576040517f08c379a0000000000000000000000000000000000000000000000000000000008152600401620002ea9062000865565b60405180910390fd5b7f7e3f7f0708a84de9203036abaa450dccc85ad5ff52f78c170f3edb55cf5e88286003548260405162000328929190620007b1565b60405180910390a18060038190555050565b7fccb45da8d5717e6c4544694297c4ba5cf151d455c9bb0ed4fc7a38411bc05461600454826040516200036f929190620007b1565b60405180910390a18060048190555050565b62000391620004c460201b60201c565b811115620003d6576040517f08c379a0000000000000000000000000000000000000000000000000000000008152600401620003cd9062000923565b60405180910390fd5b60006006549050816006819055507f0553476bf02ef2726e8ce5ced78d63e26e602e4a2257b1f559418e24b4633997818360405162000417929190620007b1565b60405180910390a15050565b7f08f74ea46ef7894f65eabfb5e6e695de773a000b47c529ab559178069b226401600760009054906101000a900473ffffffffffffffffffffffffffffffffffffffff16826040516200047892919062000945565b60405180910390a180600760006101000a81548173ffffffffffffffffffffffffffffffffffffffff021916908373ffffffffffffffffffffffffffffffffffffffff16021790555050565b60006064905090565b828054620004db90620009a1565b90600052602060002090601f016020900481019282620004ff57600085556200054b565b82601f106200051a57805160ff19168380011785556200054b565b828001600101855582156200054b579182015b828111156200054a5782518255916020019190600101906200052d565b5b5090506200055a91906200055e565b5090565b5b80821115620005795760008160009055506001016200055f565b5090565b600080fd5b600073ffffffffffffffffffffffffffffffffffffffff82169050919050565b6000620005af8262000582565b9050919050565b6000620005c382620005a2565b9050919050565b620005d581620005b6565b8114620005e157600080fd5b50565b600081519050620005f581620005ca565b92915050565b6000620006088262000582565b9050919050565b60006200061c82620005fb565b9050919050565b6200062e816200060f565b81146200063a57600080fd5b50565b6000815190506200064e8162000623565b92915050565b6000819050919050565b620006698162000654565b81146200067557600080fd5b50565b60008151905062000689816200065e565b92915050565b600080600080600060a08688031215620006ae57620006ad6200057d565b5b6000620006be88828901620005e4565b9550506020620006d1888289016200063d565b9450506040620006e48882890162000678565b9350506060620006f78882890162000678565b92505060806200070a8882890162000678565b9150509295509295909350565b6000819050919050565b6200072c8162000717565b82525050565b6200073d8162000654565b82525050565b6200074e81620005a2565b82525050565b600060a0820190506200076b600083018862000721565b6200077a602083018762000721565b62000789604083018662000721565b62000798606083018562000732565b620007a7608083018462000743565b9695505050505050565b6000604082019050620007c8600083018562000732565b620007d7602083018462000732565b9392505050565b600082825260208201905092915050565b7f476f7665726e6f7253657474696e67733a20766f74696e6720706572696f642060008201527f746f6f206c6f7700000000000000000000000000000000000000000000000000602082015250565b60006200084d602783620007de565b91506200085a82620007ef565b604082019050919050565b6000602082019050818103600083015262000880816200083e565b9050919050565b7f476f7665726e6f72566f74657351756f72756d4672616374696f6e3a2071756f60008201527f72756d4e756d657261746f72206f7665722071756f72756d44656e6f6d696e6160208201527f746f720000000000000000000000000000000000000000000000000000000000604082015250565b60006200090b604383620007de565b9150620009188262000887565b606082019050919050565b600060208201905081810360008301526200093e81620008fc565b9050919050565b60006040820190506200095c600083018562000743565b6200096b602083018462000743565b9392505050565b7f4e487b7100000000000000000000000000000000000000000000000000000000600052602260045260246000fd5b60006002820490506001821680620009ba57607f821691505b60208210811415620009d157620009d062000972565b5b50919050565b60805160a05160c05160e0516101005161012051610140516150ea62000a40600039600081816115f001528181611f9f015261209a01526000612313015260006123550152600061233401526000612269015260006122bf015260006122e801526150ea6000f3fe6080604052600436106101f25760003560e01c80637d5e81e21161010d578063c59057e4116100a0578063ea0217cf1161006f578063ea0217cf146107da578063eb9019d414610803578063ece40cc114610840578063f8ce560a14610869578063fc0c546a146108a657610238565b8063c59057e41461071c578063d33219b414610759578063dd4e2ba514610784578063deaaa7cc146107af57610238565b8063ab58fb8e116100dc578063ab58fb8e1461064e578063b58131b01461068b578063c01f9e37146106b6578063c28bc2fa146106f357610238565b80637d5e81e21461059257806397c3d334146105cf578063a7713a70146105fa578063a890c9101461062557610238565b80633bccf4fd1161018557806354fd4d501161015457806354fd4d50146104c457806356781388146104ef57806370b0f6601461052c5780637b3c71d31461055557610238565b80633bccf4fd146103ce5780633e4f49e61461040b5780634385963214610448578063544ffc9c1461048557610238565b8063160cbed7116101c1578063160cbed7146102f95780632656227d146103365780632d63f693146103665780633932abb1146103a357610238565b806301ffc9a71461023d57806302a251a31461027a57806306f3f9e6146102a557806306fdde03146102ce57610238565b36610238573073ffffffffffffffffffffffffffffffffffffffff166102166108d1565b73ffffffffffffffffffffffffffffffffffffffff161461023657600080fd5b005b600080fd5b34801561024957600080fd5b50610264600480360381019061025f9190612d6f565b6108e0565b6040516102719190612db7565b60405180910390f35b34801561028657600080fd5b5061028f6108f2565b60405161029c9190612deb565b60405180910390f35b3480156102b157600080fd5b506102cc60048036038101906102c79190612e32565b610901565b005b3480156102da57600080fd5b506102e3610989565b6040516102f09190612ef8565b60405180910390f35b34801561030557600080fd5b50610320600480360381019061031b919061334f565b610a1b565b60405161032d9190612deb565b60405180910390f35b610350600480360381019061034b919061334f565b610cd5565b60405161035d9190612deb565b60405180910390f35b34801561037257600080fd5b5061038d60048036038101906103889190612e32565b610e08565b60405161039a9190612deb565b60405180910390f35b3480156103af57600080fd5b506103b8610e76565b6040516103c59190612deb565b60405180910390f35b3480156103da57600080fd5b506103f560048036038101906103f09190613443565b610e85565b6040516104029190612deb565b60405180910390f35b34801561041757600080fd5b50610432600480360381019061042d9190612e32565b610f0f565b60405161043f9190613535565b60405180910390f35b34801561045457600080fd5b5061046f600480360381019061046a9190613550565b610f21565b60405161047c9190612db7565b60405180910390f35b34801561049157600080fd5b506104ac60048036038101906104a79190612e32565b610f8c565b6040516104bb93929190613590565b60405180910390f35b3480156104d057600080fd5b506104d9610fc4565b6040516104e69190612ef8565b60405180910390f35b3480156104fb57600080fd5b50610516600480360381019061051191906135c7565b611001565b6040516105239190612deb565b60405180910390f35b34801561053857600080fd5b50610553600480360381019061054e9190612e32565b611032565b005b34801561056157600080fd5b5061057c60048036038101906105779190613662565b6110ba565b6040516105899190612deb565b60405180910390f35b34801561059e57600080fd5b506105b960048036038101906105b49190613777565b611122565b6040516105c69190612deb565b60405180910390f35b3480156105db57600080fd5b506105e461113a565b6040516105f19190612deb565b60405180910390f35b34801561060657600080fd5b5061060f611143565b60405161061c9190612deb565b60405180910390f35b34801561063157600080fd5b5061064c6004803603810190610647919061389e565b61114d565b005b34801561065a57600080fd5b5061067560048036038101906106709190612e32565b6111d5565b6040516106829190612deb565b60405180910390f35b34801561069757600080fd5b506106a06112a2565b6040516106ad9190612deb565b60405180910390f35b3480156106c257600080fd5b506106dd60048036038101906106d89190612e32565b6112b1565b6040516106ea9190612deb565b60405180910390f35b3480156106ff57600080fd5b5061071a60048036038101906107159190613921565b61131f565b005b34801561072857600080fd5b50610743600480360381019061073e919061334f565b6113f1565b6040516107509190612deb565b60405180910390f35b34801561076557600080fd5b5061076e61142d565b60405161077b91906139a4565b60405180910390f35b34801561079057600080fd5b50610799611457565b6040516107a69190612ef8565b60405180910390f35b3480156107bb57600080fd5b506107c4611494565b6040516107d191906139ce565b60405180910390f35b3480156107e657600080fd5b5061080160048036038101906107fc9190612e32565b6114b8565b005b34801561080f57600080fd5b5061082a600480360381019061082591906139e9565b611540565b6040516108379190612deb565b60405180910390f35b34801561084c57600080fd5b5061086760048036038101906108629190612e32565b611554565b005b34801561087557600080fd5b50610890600480360381019061088b9190612e32565b6115dc565b60405161089d9190612deb565b60405180910390f35b3480156108b257600080fd5b506108bb6115ee565b6040516108c89190613a88565b60405180910390f35b60006108db611612565b905090565b60006108eb8261163c565b9050919050565b60006108fc6116b6565b905090565b6109096108d1565b73ffffffffffffffffffffffffffffffffffffffff166109276116c0565b73ffffffffffffffffffffffffffffffffffffffff161461097d576040517f08c379a000000000000000000000000000000000000000000000000000000000815260040161097490613aef565b60405180910390fd5b610986816116c8565b50565b60606000805461099890613b3e565b80601f01602080910402602001604051908101604052809291908181526020018280546109c490613b3e565b8015610a115780601f106109e657610100808354040283529160200191610a11565b820191906000526020600020905b8154815290600101906020018083116109f457829003601f168201915b5050505050905090565b600080610a2a868686866113f1565b905060046007811115610a4057610a3f6134be565b5b610a4982610f0f565b6007811115610a5b57610a5a6134be565b5b14610a9b576040517f08c379a0000000000000000000000000000000000000000000000000000000008152600401610a9290613be2565b60405180910390fd5b6000600760009054906101000a900473ffffffffffffffffffffffffffffffffffffffff1673ffffffffffffffffffffffffffffffffffffffff1663f27a0c926040518163ffffffff1660e01b8152600401602060405180830381865afa158015610b0a573d6000803e3d6000fd5b505050506040513d601f19601f82011682018060405250810190610b2e9190613c17565b9050600760009054906101000a900473ffffffffffffffffffffffffffffffffffffffff1673ffffffffffffffffffffffffffffffffffffffff1663b1c5f4278888886000896040518663ffffffff1660e01b8152600401610b94959493929190613f1f565b602060405180830381865afa158015610bb1573d6000803e3d6000fd5b505050506040513d601f19601f82011682018060405250810190610bd59190613f9c565b6008600084815260200190815260200160002081905550600760009054906101000a900473ffffffffffffffffffffffffffffffffffffffff1673ffffffffffffffffffffffffffffffffffffffff16638f2a0bb0888888600089876040518763ffffffff1660e01b8152600401610c5296959493929190613fc9565b600060405180830381600087803b158015610c6c57600080fd5b505af1158015610c80573d6000803e3d6000fd5b505050507f9a2e42fd6722813d69113e7d0079d3d940171428df7373df9c7f7617cfda2892828242610cb2919061406e565b604051610cc09291906140c4565b60405180910390a18192505050949350505050565b600080610ce4868686866113f1565b90506000610cf182610f0f565b905060046007811115610d0757610d066134be565b5b816007811115610d1a57610d196134be565b5b1480610d4a575060056007811115610d3557610d346134be565b5b816007811115610d4857610d476134be565b5b145b610d89576040517f08c379a0000000000000000000000000000000000000000000000000000000008152600401610d8090613be2565b60405180910390fd5b600180600084815260200190815260200160002060020160006101000a81548160ff0219169083151502179055507f712ae1383f79ac853f8d882153778e0260ef8f03b504e2866e0593e04d2b291f82604051610de69190612deb565b60405180910390a1610dfb828888888861175d565b8192505050949350505050565b6000610e65600160008481526020019081526020016000206000016040518060200160405290816000820160009054906101000a900467ffffffffffffffff1667ffffffffffffffff1667ffffffffffffffff1681525050611771565b67ffffffffffffffff169050919050565b6000610e8061177f565b905090565b600080610ee6610ede7f150214d74d59b7d1e90c73fc22ef3d991dd0a76b046543d4d80ab92d2a50328f8989604051602001610ec3939291906140fc565b60405160208183030381529060405280519060200120611789565b8686866117a3565b9050610f03878288604051806020016040528060008152506117ce565b91505095945050505050565b6000610f1a82611922565b9050919050565b60006005600084815260200190815260200160002060030160008373ffffffffffffffffffffffffffffffffffffffff1673ffffffffffffffffffffffffffffffffffffffff16815260200190815260200160002060009054906101000a900460ff16905092915050565b600080600080600560008681526020019081526020016000209050806000015481600101548260020154935093509350509193909250565b60606040518060400160405280600181526020017f3100000000000000000000000000000000000000000000000000000000000000815250905090565b60008061100c6116c0565b9050611029848285604051806020016040528060008152506117ce565b91505092915050565b61103a6108d1565b73ffffffffffffffffffffffffffffffffffffffff166110586116c0565b73ffffffffffffffffffffffffffffffffffffffff16146110ae576040517f08c379a00000000000000000000000000000000000000000000000000000000081526004016110a590613aef565b60405180910390fd5b6110b781611af6565b50565b6000806110c56116c0565b905061111786828787878080601f016020809104026020016040519081016040528093929190818152602001838380828437600081840152601f19601f820116905080830192505050505050506117ce565b915050949350505050565b600061113085858585611b3b565b9050949350505050565b60006064905090565b6000600654905090565b6111556108d1565b73ffffffffffffffffffffffffffffffffffffffff166111736116c0565b73ffffffffffffffffffffffffffffffffffffffff16146111c9576040517f08c379a00000000000000000000000000000000000000000000000000000000081526004016111c090613aef565b60405180910390fd5b6111d281611e3b565b50565b600080600760009054906101000a900473ffffffffffffffffffffffffffffffffffffffff1673ffffffffffffffffffffffffffffffffffffffff1663d45c443560086000868152602001908152602001600020546040518263ffffffff1660e01b815260040161124691906139ce565b602060405180830381865afa158015611263573d6000803e3d6000fd5b505050506040513d601f19601f820116820180604052508101906112879190613c17565b905060018114611297578061129a565b60005b915050919050565b60006112ac611eda565b905090565b600061130e600160008481526020019081526020016000206001016040518060200160405290816000820160009054906101000a900467ffffffffffffffff1667ffffffffffffffff1667ffffffffffffffff1681525050611771565b67ffffffffffffffff169050919050565b6113276108d1565b73ffffffffffffffffffffffffffffffffffffffff166113456116c0565b73ffffffffffffffffffffffffffffffffffffffff161461139b576040517f08c379a000000000000000000000000000000000000000000000000000000000815260040161139290613aef565b60405180910390fd5b6113ea8483838080601f016020809104026020016040519081016040528093929190818152602001838380828437600081840152601f19601f8201169050808301925050505050505085611ee4565b5050505050565b60008484848460405160200161140a9493929190614133565b6040516020818303038152906040528051906020012060001c9050949350505050565b6000600760009054906101000a900473ffffffffffffffffffffffffffffffffffffffff16905090565b60606040518060400160405280602081526020017f737570706f72743d627261766f2671756f72756d3d666f722c6162737461696e815250905090565b7f150214d74d59b7d1e90c73fc22ef3d991dd0a76b046543d4d80ab92d2a50328f81565b6114c06108d1565b73ffffffffffffffffffffffffffffffffffffffff166114de6116c0565b73ffffffffffffffffffffffffffffffffffffffff1614611534576040517f08c379a000000000000000000000000000000000000000000000000000000000815260040161152b90613aef565b60405180910390fd5b61153d81611f13565b50565b600061154c8383611f9b565b905092915050565b61155c6108d1565b73ffffffffffffffffffffffffffffffffffffffff1661157a6116c0565b73ffffffffffffffffffffffffffffffffffffffff16146115d0576040517f08c379a00000000000000000000000000000000000000000000000000000000081526004016115c790613aef565b60405180910390fd5b6115d981612041565b50565b60006115e782612086565b9050919050565b7f000000000000000000000000000000000000000000000000000000000000000081565b6000600760009054906101000a900473ffffffffffffffffffffffffffffffffffffffff16905090565b60007f6e665ced000000000000000000000000000000000000000000000000000000007bffffffffffffffffffffffffffffffffffffffffffffffffffffffff1916827bffffffffffffffffffffffffffffffffffffffffffffffffffffffff191614806116af57506116ae8261214d565b5b9050919050565b6000600354905090565b600033905090565b6116d061113a565b811115611712576040517f08c379a000000000000000000000000000000000000000000000000000000000815260040161170990614225565b60405180910390fd5b60006006549050816006819055507f0553476bf02ef2726e8ce5ced78d63e26e602e4a2257b1f559418e24b463399781836040516117519291906140c4565b60405180910390a15050565b61176a85858585856121c7565b5050505050565b600081600001519050919050565b6000600254905090565b600061179c611796612265565b8361237f565b9050919050565b60008060006117b4878787876123b2565b915091506117c1816124bf565b8192505050949350505050565b600080600160008781526020019081526020016000209050600160078111156117fa576117f96134be565b5b61180387610f0f565b6007811115611815576118146134be565b5b14611855576040517f08c379a000000000000000000000000000000000000000000000000000000000815260040161184c906142b7565b60405180910390fd5b60006118b3866118a4846000016040518060200160405290816000820160009054906101000a900467ffffffffffffffff1667ffffffffffffffff1667ffffffffffffffff1681525050611771565b67ffffffffffffffff16611540565b90506118c187878784612694565b8573ffffffffffffffffffffffffffffffffffffffff167fb8e138887d0aa13bab447e82de9d5c1777041ecd21ca36ba824ff1e6c07ddda48887848860405161190d94939291906142d7565b60405180910390a28092505050949350505050565b60008061192e8361289a565b905060046007811115611944576119436134be565b5b816007811115611957576119566134be565b5b146119655780915050611af1565b6000600860008581526020019081526020016000205490506000801b811415611992578192505050611af1565b600760009054906101000a900473ffffffffffffffffffffffffffffffffffffffff1673ffffffffffffffffffffffffffffffffffffffff16632ab0f529826040518263ffffffff1660e01b81526004016119ed91906139ce565b602060405180830381865afa158015611a0a573d6000803e3d6000fd5b505050506040513d601f19601f82011682018060405250810190611a2e919061434f565b15611a3e57600792505050611af1565b600760009054906101000a900473ffffffffffffffffffffffffffffffffffffffff1673ffffffffffffffffffffffffffffffffffffffff1663584b153e826040518263ffffffff1660e01b8152600401611a9991906139ce565b602060405180830381865afa158015611ab6573d6000803e3d6000fd5b505050506040513d601f19601f82011682018060405250810190611ada919061434f565b15611aea57600592505050611af1565b6002925050505b919050565b7fc565b045403dc03c2eea82b81a0465edad9e2e7fc4d97e11421c209da93d7a9360025482604051611b299291906140c4565b60405180910390a18060028190555050565b6000611b456112a2565b611b5b33600143611b56919061437c565b611540565b1015611b9c576040517f08c379a0000000000000000000000000000000000000000000000000000000008152600401611b9390614448565b60405180910390fd5b6000611bb186868686805190602001206113f1565b90508451865114611bf7576040517f08c379a0000000000000000000000000000000000000000000000000000000008152600401611bee906144da565b60405180910390fd5b8351865114611c3b576040517f08c379a0000000000000000000000000000000000000000000000000000000008152600401611c32906144da565b60405180910390fd5b6000865111611c7f576040517f08c379a0000000000000000000000000000000000000000000000000000000008152600401611c7690614546565b60405180910390fd5b6000600160008381526020019081526020016000209050611cdf816000016040518060200160405290816000820160009054906101000a900467ffffffffffffffff1667ffffffffffffffff1667ffffffffffffffff16815250506129af565b611d1e576040517f08c379a0000000000000000000000000000000000000000000000000000000008152600401611d15906145d8565b60405180910390fd5b6000611d30611d2b610e76565b6129c9565b611d39436129c9565b611d43919061460c565b90506000611d57611d526108f2565b6129c9565b82611d62919061460c565b9050611d7a8284600001612a2090919063ffffffff16565b611d908184600101612a2090919063ffffffff16565b7f7d84a6263ae0d98d3329bd7b46bb4e8d6f98cd35a7adb45c274c8b7fd5ebd5e084611dba6116c0565b8b8b8d5167ffffffffffffffff811115611dd757611dd6612f1f565b5b604051908082528060200260200182016040528015611e0a57816020015b6060815260200190600190039081611df55790505b508c88888e604051611e2499989796959493929190614787565b60405180910390a183945050505050949350505050565b7f08f74ea46ef7894f65eabfb5e6e695de773a000b47c529ab559178069b226401600760009054906101000a900473ffffffffffffffffffffffffffffffffffffffff1682604051611e8e929190614837565b60405180910390a180600760006101000a81548173ffffffffffffffffffffffffffffffffffffffff021916908373ffffffffffffffffffffffffffffffffffffffff16021790555050565b6000600454905090565b6060611f0a84848460405180606001604052806029815260200161508c60299139612a4f565b90509392505050565b60008111611f56576040517f08c379a0000000000000000000000000000000000000000000000000000000008152600401611f4d906148d2565b60405180910390fd5b7f7e3f7f0708a84de9203036abaa450dccc85ad5ff52f78c170f3edb55cf5e882860035482604051611f899291906140c4565b60405180910390a18060038190555050565b60007f000000000000000000000000000000000000000000000000000000000000000073ffffffffffffffffffffffffffffffffffffffff16633a46b1a884846040518363ffffffff1660e01b8152600401611ff89291906148f2565b602060405180830381865afa158015612015573d6000803e3d6000fd5b505050506040513d601f19601f820116820180604052508101906120399190613c17565b905092915050565b7fccb45da8d5717e6c4544694297c4ba5cf151d455c9bb0ed4fc7a38411bc05461600454826040516120749291906140c4565b60405180910390a18060048190555050565b600061209061113a565b612098611143565b7f000000000000000000000000000000000000000000000000000000000000000073ffffffffffffffffffffffffffffffffffffffff16638e539e8c856040518263ffffffff1660e01b81526004016120f19190612deb565b602060405180830381865afa15801561210e573d6000803e3d6000fd5b505050506040513d601f19601f820116820180604052508101906121329190613c17565b61213c919061491b565b61214691906149a4565b9050919050565b60007fbf26d897000000000000000000000000000000000000000000000000000000007bffffffffffffffffffffffffffffffffffffffffffffffffffffffff1916827bffffffffffffffffffffffffffffffffffffffffffffffffffffffff191614806121c057506121bf82612b63565b5b9050919050565b600760009054906101000a900473ffffffffffffffffffffffffffffffffffffffff1673ffffffffffffffffffffffffffffffffffffffff1663e38335e5348686866000876040518763ffffffff1660e01b815260040161222c959493929190613f1f565b6000604051808303818588803b15801561224557600080fd5b505af1158015612259573d6000803e3d6000fd5b50505050505050505050565b60007f000000000000000000000000000000000000000000000000000000000000000073ffffffffffffffffffffffffffffffffffffffff163073ffffffffffffffffffffffffffffffffffffffff161480156122e157507f000000000000000000000000000000000000000000000000000000000000000046145b1561230e577f0000000000000000000000000000000000000000000000000000000000000000905061237c565b6123797f00000000000000000000000000000000000000000000000000000000000000007f00000000000000000000000000000000000000000000000000000000000000007f0000000000000000000000000000000000000000000000000000000000000000612bcd565b90505b90565b60008282604051602001612394929190614a4d565b60405160208183030381529060405280519060200120905092915050565b6000807f7fffffffffffffffffffffffffffffff5d576e7357a4501ddfe92f46681b20a08360001c11156123ed5760006003915091506124b6565b601b8560ff16141580156124055750601c8560ff1614155b156124175760006004915091506124b6565b60006001878787876040516000815260200160405260405161243c9493929190614a84565b6020604051602081039080840390855afa15801561245e573d6000803e3d6000fd5b505050602060405103519050600073ffffffffffffffffffffffffffffffffffffffff168173ffffffffffffffffffffffffffffffffffffffff1614156124ad576000600192509250506124b6565b80600092509250505b94509492505050565b600060048111156124d3576124d26134be565b5b8160048111156124e6576124e56134be565b5b14156124f157612691565b60016004811115612505576125046134be565b5b816004811115612518576125176134be565b5b1415612559576040517f08c379a000000000000000000000000000000000000000000000000000000000815260040161255090614b15565b60405180910390fd5b6002600481111561256d5761256c6134be565b5b8160048111156125805761257f6134be565b5b14156125c1576040517f08c379a00000000000000000000000000000000000000000000000000000000081526004016125b890614b81565b60405180910390fd5b600360048111156125d5576125d46134be565b5b8160048111156125e8576125e76134be565b5b1415612629576040517f08c379a000000000000000000000000000000000000000000000000000000000815260040161262090614c13565b60405180910390fd5b60048081111561263c5761263b6134be565b5b81600481111561264f5761264e6134be565b5b1415612690576040517f08c379a000000000000000000000000000000000000000000000000000000000815260040161268790614ca5565b60405180910390fd5b5b50565b60006005600086815260200190815260200160002090508060030160008573ffffffffffffffffffffffffffffffffffffffff1673ffffffffffffffffffffffffffffffffffffffff16815260200190815260200160002060009054906101000a900460ff161561273a576040517f08c379a000000000000000000000000000000000000000000000000000000000815260040161273190614d37565b60405180910390fd5b60018160030160008673ffffffffffffffffffffffffffffffffffffffff1673ffffffffffffffffffffffffffffffffffffffff16815260200190815260200160002060006101000a81548160ff021916908315150217905550600060028111156127a8576127a76134be565b5b60ff168360ff1614156127d557818160000160008282546127c9919061406e565b92505081905550612893565b600160028111156127e9576127e86134be565b5b60ff168360ff161415612816578181600101600082825461280a919061406e565b92505081905550612892565b600280811115612829576128286134be565b5b60ff168360ff161415612856578181600201600082825461284a919061406e565b92505081905550612891565b6040517f08c379a000000000000000000000000000000000000000000000000000000000815260040161288890614dc9565b60405180910390fd5b5b5b5050505050565b6000806001600084815260200190815260200160002090508060020160009054906101000a900460ff16156128d35760079150506129aa565b8060020160019054906101000a900460ff16156128f45760029150506129aa565b60006128ff84610e08565b90506000811415612945576040517f08c379a000000000000000000000000000000000000000000000000000000000815260040161293c90614e35565b60405180910390fd5b438110612957576000925050506129aa565b6000612962856112b1565b905043811061297757600193505050506129aa565b61298085612c07565b8015612991575061299085612c4e565b5b156129a257600493505050506129aa565b600393505050505b919050565b600080826000015167ffffffffffffffff16149050919050565b600067ffffffffffffffff8016821115612a18576040517f08c379a0000000000000000000000000000000000000000000000000000000008152600401612a0f90614ec7565b60405180910390fd5b819050919050565b808260000160006101000a81548167ffffffffffffffff021916908367ffffffffffffffff1602179055505050565b606082471015612a94576040517f08c379a0000000000000000000000000000000000000000000000000000000008152600401612a8b90614f59565b60405180910390fd5b612a9d85612c79565b612adc576040517f08c379a0000000000000000000000000000000000000000000000000000000008152600401612ad390614fc5565b60405180910390fd5b6000808673ffffffffffffffffffffffffffffffffffffffff168587604051612b059190615021565b60006040518083038185875af1925050503d8060008114612b42576040519150601f19603f3d011682016040523d82523d6000602084013e612b47565b606091505b5091509150612b57828286612c9c565b92505050949350505050565b60007f01ffc9a7000000000000000000000000000000000000000000000000000000007bffffffffffffffffffffffffffffffffffffffffffffffffffffffff1916827bffffffffffffffffffffffffffffffffffffffffffffffffffffffff1916149050919050565b60008383834630604051602001612be8959493929190615038565b6040516020818303038152906040528051906020012090509392505050565b60008060056000848152602001908152602001600020905080600201548160010154612c33919061406e565b612c44612c3f85610e08565b6115dc565b1115915050919050565b6000806005600084815260200190815260200160002090508060000154816001015411915050919050565b6000808273ffffffffffffffffffffffffffffffffffffffff163b119050919050565b60608315612cac57829050612cfc565b600083511115612cbf5782518084602001fd5b816040517f08c379a0000000000000000000000000000000000000000000000000000000008152600401612cf39190612ef8565b60405180910390fd5b9392505050565b6000604051905090565b600080fd5b600080fd5b60007fffffffff0000000000000000000000000000000000000000000000000000000082169050919050565b612d4c81612d17565b8114612d5757600080fd5b50565b600081359050612d6981612d43565b92915050565b600060208284031215612d8557612d84612d0d565b5b6000612d9384828501612d5a565b91505092915050565b60008115159050919050565b612db181612d9c565b82525050565b6000602082019050612dcc6000830184612da8565b92915050565b6000819050919050565b612de581612dd2565b82525050565b6000602082019050612e006000830184612ddc565b92915050565b612e0f81612dd2565b8114612e1a57600080fd5b50565b600081359050612e2c81612e06565b92915050565b600060208284031215612e4857612e47612d0d565b5b6000612e5684828501612e1d565b91505092915050565b600081519050919050565b600082825260208201905092915050565b60005b83811015612e99578082015181840152602081019050612e7e565b83811115612ea8576000848401525b50505050565b6000601f19601f8301169050919050565b6000612eca82612e5f565b612ed48185612e6a565b9350612ee4818560208601612e7b565b612eed81612eae565b840191505092915050565b60006020820190508181036000830152612f128184612ebf565b905092915050565b600080fd5b7f4e487b7100000000000000000000000000000000000000000000000000000000600052604160045260246000fd5b612f5782612eae565b810181811067ffffffffffffffff82111715612f7657612f75612f1f565b5b80604052505050565b6000612f89612d03565b9050612f958282612f4e565b919050565b600067ffffffffffffffff821115612fb557612fb4612f1f565b5b602082029050602081019050919050565b600080fd5b600073ffffffffffffffffffffffffffffffffffffffff82169050919050565b6000612ff682612fcb565b9050919050565b61300681612feb565b811461301157600080fd5b50565b60008135905061302381612ffd565b92915050565b600061303c61303784612f9a565b612f7f565b9050808382526020820190506020840283018581111561305f5761305e612fc6565b5b835b8181101561308857806130748882613014565b845260208401935050602081019050613061565b5050509392505050565b600082601f8301126130a7576130a6612f1a565b5b81356130b7848260208601613029565b91505092915050565b600067ffffffffffffffff8211156130db576130da612f1f565b5b602082029050602081019050919050565b60006130ff6130fa846130c0565b612f7f565b9050808382526020820190506020840283018581111561312257613121612fc6565b5b835b8181101561314b57806131378882612e1d565b845260208401935050602081019050613124565b5050509392505050565b600082601f83011261316a57613169612f1a565b5b813561317a8482602086016130ec565b91505092915050565b600067ffffffffffffffff82111561319e5761319d612f1f565b5b602082029050602081019050919050565b600080fd5b600067ffffffffffffffff8211156131cf576131ce612f1f565b5b6131d882612eae565b9050602081019050919050565b82818337600083830152505050565b6000613207613202846131b4565b612f7f565b905082815260208101848484011115613223576132226131af565b5b61322e8482856131e5565b509392505050565b600082601f83011261324b5761324a612f1a565b5b813561325b8482602086016131f4565b91505092915050565b600061327761327284613183565b612f7f565b9050808382526020820190506020840283018581111561329a57613299612fc6565b5b835b818110156132e157803567ffffffffffffffff8111156132bf576132be612f1a565b5b8086016132cc8982613236565b8552602085019450505060208101905061329c565b5050509392505050565b600082601f830112613300576132ff612f1a565b5b8135613310848260208601613264565b91505092915050565b6000819050919050565b61332c81613319565b811461333757600080fd5b50565b60008135905061334981613323565b92915050565b6000806000806080858703121561336957613368612d0d565b5b600085013567ffffffffffffffff81111561338757613386612d12565b5b61339387828801613092565b945050602085013567ffffffffffffffff8111156133b4576133b3612d12565b5b6133c087828801613155565b935050604085013567ffffffffffffffff8111156133e1576133e0612d12565b5b6133ed878288016132eb565b92505060606133fe8782880161333a565b91505092959194509250565b600060ff82169050919050565b6134208161340a565b811461342b57600080fd5b50565b60008135905061343d81613417565b92915050565b600080600080600060a0868803121561345f5761345e612d0d565b5b600061346d88828901612e1d565b955050602061347e8882890161342e565b945050604061348f8882890161342e565b93505060606134a08882890161333a565b92505060806134b18882890161333a565b9150509295509295909350565b7f4e487b7100000000000000000000000000000000000000000000000000000000600052602160045260246000fd5b600881106134fe576134fd6134be565b5b50565b600081905061350f826134ed565b919050565b600061351f82613501565b9050919050565b61352f81613514565b82525050565b600060208201905061354a6000830184613526565b92915050565b6000806040838503121561356757613566612d0d565b5b600061357585828601612e1d565b925050602061358685828601613014565b9150509250929050565b60006060820190506135a56000830186612ddc565b6135b26020830185612ddc565b6135bf6040830184612ddc565b949350505050565b600080604083850312156135de576135dd612d0d565b5b60006135ec85828601612e1d565b92505060206135fd8582860161342e565b9150509250929050565b600080fd5b60008083601f84011261362257613621612f1a565b5b8235905067ffffffffffffffff81111561363f5761363e613607565b5b60208301915083600182028301111561365b5761365a612fc6565b5b9250929050565b6000806000806060858703121561367c5761367b612d0d565b5b600061368a87828801612e1d565b945050602061369b8782880161342e565b935050604085013567ffffffffffffffff8111156136bc576136bb612d12565b5b6136c88782880161360c565b925092505092959194509250565b600067ffffffffffffffff8211156136f1576136f0612f1f565b5b6136fa82612eae565b9050602081019050919050565b600061371a613715846136d6565b612f7f565b905082815260208101848484011115613736576137356131af565b5b6137418482856131e5565b509392505050565b600082601f83011261375e5761375d612f1a565b5b813561376e848260208601613707565b91505092915050565b6000806000806080858703121561379157613790612d0d565b5b600085013567ffffffffffffffff8111156137af576137ae612d12565b5b6137bb87828801613092565b945050602085013567ffffffffffffffff8111156137dc576137db612d12565b5b6137e887828801613155565b935050604085013567ffffffffffffffff81111561380957613808612d12565b5b613815878288016132eb565b925050606085013567ffffffffffffffff81111561383657613835612d12565b5b61384287828801613749565b91505092959194509250565b600061385982612fcb565b9050919050565b600061386b8261384e565b9050919050565b61387b81613860565b811461388657600080fd5b50565b60008135905061389881613872565b92915050565b6000602082840312156138b4576138b3612d0d565b5b60006138c284828501613889565b91505092915050565b60008083601f8401126138e1576138e0612f1a565b5b8235905067ffffffffffffffff8111156138fe576138fd613607565b5b60208301915083600182028301111561391a57613919612fc6565b5b9250929050565b6000806000806060858703121561393b5761393a612d0d565b5b600061394987828801613014565b945050602061395a87828801612e1d565b935050604085013567ffffffffffffffff81111561397b5761397a612d12565b5b613987878288016138cb565b925092505092959194509250565b61399e81612feb565b82525050565b60006020820190506139b96000830184613995565b92915050565b6139c881613319565b82525050565b60006020820190506139e360008301846139bf565b92915050565b60008060408385031215613a00576139ff612d0d565b5b6000613a0e85828601613014565b9250506020613a1f85828601612e1d565b9150509250929050565b6000819050919050565b6000613a4e613a49613a4484612fcb565b613a29565b612fcb565b9050919050565b6000613a6082613a33565b9050919050565b6000613a7282613a55565b9050919050565b613a8281613a67565b82525050565b6000602082019050613a9d6000830184613a79565b92915050565b7f476f7665726e6f723a206f6e6c79476f7665726e616e63650000000000000000600082015250565b6000613ad9601883612e6a565b9150613ae482613aa3565b602082019050919050565b60006020820190508181036000830152613b0881613acc565b9050919050565b7f4e487b7100000000000000000000000000000000000000000000000000000000600052602260045260246000fd5b60006002820490506001821680613b5657607f821691505b60208210811415613b6a57613b69613b0f565b5b50919050565b7f476f7665726e6f723a2070726f706f73616c206e6f742073756363657373667560008201527f6c00000000000000000000000000000000000000000000000000000000000000602082015250565b6000613bcc602183612e6a565b9150613bd782613b70565b604082019050919050565b60006020820190508181036000830152613bfb81613bbf565b9050919050565b600081519050613c1181612e06565b92915050565b600060208284031215613c2d57613c2c612d0d565b5b6000613c3b84828501613c02565b91505092915050565b600081519050919050565b600082825260208201905092915050565b6000819050602082019050919050565b613c7981612feb565b82525050565b6000613c8b8383613c70565b60208301905092915050565b6000602082019050919050565b6000613caf82613c44565b613cb98185613c4f565b9350613cc483613c60565b8060005b83811015613cf5578151613cdc8882613c7f565b9750613ce783613c97565b925050600181019050613cc8565b5085935050505092915050565b600081519050919050565b600082825260208201905092915050565b6000819050602082019050919050565b613d3781612dd2565b82525050565b6000613d498383613d2e565b60208301905092915050565b6000602082019050919050565b6000613d6d82613d02565b613d778185613d0d565b9350613d8283613d1e565b8060005b83811015613db3578151613d9a8882613d3d565b9750613da583613d55565b925050600181019050613d86565b5085935050505092915050565b600081519050919050565b600082825260208201905092915050565b6000819050602082019050919050565b600081519050919050565b600082825260208201905092915050565b6000613e1382613dec565b613e1d8185613df7565b9350613e2d818560208601612e7b565b613e3681612eae565b840191505092915050565b6000613e4d8383613e08565b905092915050565b6000602082019050919050565b6000613e6d82613dc0565b613e778185613dcb565b935083602082028501613e8985613ddc565b8060005b85811015613ec55784840389528151613ea68582613e41565b9450613eb183613e55565b925060208a01995050600181019050613e8d565b50829750879550505050505092915050565b6000819050919050565b60008160001b9050919050565b6000613f09613f04613eff84613ed7565b613ee1565b613319565b9050919050565b613f1981613eee565b82525050565b600060a0820190508181036000830152613f398188613ca4565b90508181036020830152613f4d8187613d62565b90508181036040830152613f618186613e62565b9050613f706060830185613f10565b613f7d60808301846139bf565b9695505050505050565b600081519050613f9681613323565b92915050565b600060208284031215613fb257613fb1612d0d565b5b6000613fc084828501613f87565b91505092915050565b600060c0820190508181036000830152613fe38189613ca4565b90508181036020830152613ff78188613d62565b9050818103604083015261400b8187613e62565b905061401a6060830186613f10565b61402760808301856139bf565b61403460a0830184612ddc565b979650505050505050565b7f4e487b7100000000000000000000000000000000000000000000000000000000600052601160045260246000fd5b600061407982612dd2565b915061408483612dd2565b9250827fffffffffffffffffffffffffffffffffffffffffffffffffffffffffffffffff038211156140b9576140b861403f565b5b828201905092915050565b60006040820190506140d96000830185612ddc565b6140e66020830184612ddc565b9392505050565b6140f68161340a565b82525050565b600060608201905061411160008301866139bf565b61411e6020830185612ddc565b61412b60408301846140ed565b949350505050565b6000608082019050818103600083015261414d8187613ca4565b905081810360208301526141618186613d62565b905081810360408301526141758185613e62565b905061418460608301846139bf565b95945050505050565b7f476f7665726e6f72566f74657351756f72756d4672616374696f6e3a2071756f60008201527f72756d4e756d657261746f72206f7665722071756f72756d44656e6f6d696e6160208201527f746f720000000000000000000000000000000000000000000000000000000000604082015250565b600061420f604383612e6a565b915061421a8261418d565b606082019050919050565b6000602082019050818103600083015261423e81614202565b9050919050565b7f476f7665726e6f723a20766f7465206e6f742063757272656e746c792061637460008201527f6976650000000000000000000000000000000000000000000000000000000000602082015250565b60006142a1602383612e6a565b91506142ac82614245565b604082019050919050565b600060208201905081810360008301526142d081614294565b9050919050565b60006080820190506142ec6000830187612ddc565b6142f960208301866140ed565b6143066040830185612ddc565b81810360608301526143188184612ebf565b905095945050505050565b61432c81612d9c565b811461433757600080fd5b50565b60008151905061434981614323565b92915050565b60006020828403121561436557614364612d0d565b5b60006143738482850161433a565b91505092915050565b600061438782612dd2565b915061439283612dd2565b9250828210156143a5576143a461403f565b5b828203905092915050565b7f476f7665726e6f72436f6d7061746962696c697479427261766f3a2070726f7060008201527f6f73657220766f7465732062656c6f772070726f706f73616c2074687265736860208201527f6f6c640000000000000000000000000000000000000000000000000000000000604082015250565b6000614432604383612e6a565b915061443d826143b0565b606082019050919050565b6000602082019050818103600083015261446181614425565b9050919050565b7f476f7665726e6f723a20696e76616c69642070726f706f73616c206c656e677460008201527f6800000000000000000000000000000000000000000000000000000000000000602082015250565b60006144c4602183612e6a565b91506144cf82614468565b604082019050919050565b600060208201905081810360008301526144f3816144b7565b9050919050565b7f476f7665726e6f723a20656d7074792070726f706f73616c0000000000000000600082015250565b6000614530601883612e6a565b915061453b826144fa565b602082019050919050565b6000602082019050818103600083015261455f81614523565b9050919050565b7f476f7665726e6f723a2070726f706f73616c20616c726561647920657869737460008201527f7300000000000000000000000000000000000000000000000000000000000000602082015250565b60006145c2602183612e6a565b91506145cd82614566565b604082019050919050565b600060208201905081810360008301526145f1816145b5565b9050919050565b600067ffffffffffffffff82169050919050565b6000614617826145f8565b9150614622836145f8565b92508267ffffffffffffffff0382111561463f5761463e61403f565b5b828201905092915050565b600081519050919050565b600082825260208201905092915050565b6000819050602082019050919050565b600082825260208201905092915050565b600061469282612e5f565b61469c8185614676565b93506146ac818560208601612e7b565b6146b581612eae565b840191505092915050565b60006146cc8383614687565b905092915050565b6000602082019050919050565b60006146ec8261464a565b6146f68185614655565b93508360208202850161470885614666565b8060005b85811015614744578484038952815161472585826146c0565b9450614730836146d4565b925060208a0199505060018101905061470c565b50829750879550505050505092915050565b600061477161476c614767846145f8565b613a29565b612dd2565b9050919050565b61478181614756565b82525050565b60006101208201905061479d600083018c612ddc565b6147aa602083018b613995565b81810360408301526147bc818a613ca4565b905081810360608301526147d08189613d62565b905081810360808301526147e481886146e1565b905081810360a08301526147f88187613e62565b905061480760c0830186614778565b61481460e0830185614778565b8181036101008301526148278184612ebf565b90509a9950505050505050505050565b600060408201905061484c6000830185613995565b6148596020830184613995565b9392505050565b7f476f7665726e6f7253657474696e67733a20766f74696e6720706572696f642060008201527f746f6f206c6f7700000000000000000000000000000000000000000000000000602082015250565b60006148bc602783612e6a565b91506148c782614860565b604082019050919050565b600060208201905081810360008301526148eb816148af565b9050919050565b60006040820190506149076000830185613995565b6149146020830184612ddc565b9392505050565b600061492682612dd2565b915061493183612dd2565b9250817fffffffffffffffffffffffffffffffffffffffffffffffffffffffffffffffff048311821515161561496a5761496961403f565b5b828202905092915050565b7f4e487b7100000000000000000000000000000000000000000000000000000000600052601260045260246000fd5b60006149af82612dd2565b91506149ba83612dd2565b9250826149ca576149c9614975565b5b828204905092915050565b600081905092915050565b7f1901000000000000000000000000000000000000000000000000000000000000600082015250565b6000614a166002836149d5565b9150614a21826149e0565b600282019050919050565b6000819050919050565b614a47614a4282613319565b614a2c565b82525050565b6000614a5882614a09565b9150614a648285614a36565b602082019150614a748284614a36565b6020820191508190509392505050565b6000608082019050614a9960008301876139bf565b614aa660208301866140ed565b614ab360408301856139bf565b614ac060608301846139bf565b95945050505050565b7f45434453413a20696e76616c6964207369676e61747572650000000000000000600082015250565b6000614aff601883612e6a565b9150614b0a82614ac9565b602082019050919050565b60006020820190508181036000830152614b2e81614af2565b9050919050565b7f45434453413a20696e76616c6964207369676e6174757265206c656e67746800600082015250565b6000614b6b601f83612e6a565b9150614b7682614b35565b602082019050919050565b60006020820190508181036000830152614b9a81614b5e565b9050919050565b7f45434453413a20696e76616c6964207369676e6174757265202773272076616c60008201527f7565000000000000000000000000000000000000000000000000000000000000602082015250565b6000614bfd602283612e6a565b9150614c0882614ba1565b604082019050919050565b60006020820190508181036000830152614c2c81614bf0565b9050919050565b7f45434453413a20696e76616c6964207369676e6174757265202776272076616c60008201527f7565000000000000000000000000000000000000000000000000000000000000602082015250565b6000614c8f602283612e6a565b9150614c9a82614c33565b604082019050919050565b60006020820190508181036000830152614cbe81614c82565b9050919050565b7f476f7665726e6f72566f74696e6753696d706c653a20766f746520616c72656160008201527f6479206361737400000000000000000000000000000000000000000000000000602082015250565b6000614d21602783612e6a565b9150614d2c82614cc5565b604082019050919050565b60006020820190508181036000830152614d5081614d14565b9050919050565b7f476f7665726e6f72566f74696e6753696d706c653a20696e76616c696420766160008201527f6c756520666f7220656e756d20566f7465547970650000000000000000000000602082015250565b6000614db3603583612e6a565b9150614dbe82614d57565b604082019050919050565b60006020820190508181036000830152614de281614da6565b9050919050565b7f476f7665726e6f723a20756e6b6e6f776e2070726f706f73616c206964000000600082015250565b6000614e1f601d83612e6a565b9150614e2a82614de9565b602082019050919050565b60006020820190508181036000830152614e4e81614e12565b9050919050565b7f53616665436173743a2076616c756520646f65736e27742066697420696e203660008201527f3420626974730000000000000000000000000000000000000000000000000000602082015250565b6000614eb1602683612e6a565b9150614ebc82614e55565b604082019050919050565b60006020820190508181036000830152614ee081614ea4565b9050919050565b7f416464726573733a20696e73756666696369656e742062616c616e636520666f60008201527f722063616c6c0000000000000000000000000000000000000000000000000000602082015250565b6000614f43602683612e6a565b9150614f4e82614ee7565b604082019050919050565b60006020820190508181036000830152614f7281614f36565b9050919050565b7f416464726573733a2063616c6c20746f206e6f6e2d636f6e7472616374000000600082015250565b6000614faf601d83612e6a565b9150614fba82614f79565b602082019050919050565b60006020820190508181036000830152614fde81614fa2565b9050919050565b600081905092915050565b6000614ffb82613dec565b6150058185614fe5565b9350615015818560208601612e7b565b80840191505092915050565b600061502d8284614ff0565b915081905092915050565b600060a08201905061504d60008301886139bf565b61505a60208301876139bf565b61506760408301866139bf565b6150746060830185612ddc565b6150816080830184613995565b969550505050505056fe416464726573733a206c6f772d6c6576656c2063616c6c20776974682076616c7565206661696c6564a2646970667358221220b4d57e5e1b02f7f5dc541453973fa3150c680a22cca7f103a5d3d4a2b4d4f8eb64736f6c634300080a0033",
  "immutableReferences": {
    "3145": [
      {
        "length": 32,
        "start": 5616
      },
      {
        "length": 32,
        "start": 8095
      },
      {
        "length": 32,
        "start": 8346
      }
    ],
    "6155": [
      {
        "length": 32,
        "start": 8936
      }
    ],
    "6157": [
      {
        "length": 32,
        "start": 8895
      }
    ],
    "6159": [
      {
        "length": 32,
        "start": 8809
      }
    ],
    "6161": [
      {
        "length": 32,
        "start": 9012
      }
    ],
    "6163": [
      {
        "length": 32,
        "start": 9045
      }
    ],
    "6165": [
      {
        "length": 32,
        "start": 8979
      }
    ]
  },
  "source": "// SPDX-License-Identifier: MIT\r\npragma solidity >=0.4.22 <0.9.0;\r\n\r\nimport \"@openzeppelin/contracts/governance/Governor.sol\";\r\nimport \"@openzeppelin/contracts/governance/extensions/GovernorSettings.sol\";\r\nimport \"@openzeppelin/contracts/governance/extensions/GovernorCountingSimple.sol\";\r\nimport \"@openzeppelin/contracts/governance/extensions/GovernorVotes.sol\";\r\nimport \"@openzeppelin/contracts/governance/extensions/GovernorVotesQuorumFraction.sol\";\r\nimport \"@openzeppelin/contracts/governance/extensions/GovernorTimelockControl.sol\";\r\n\r\ncontract GovernanceContract is Governor, GovernorSettings, GovernorCountingSimple, GovernorVotes, GovernorVotesQuorumFraction, GovernorTimelockControl {\r\n    constructor(IVotes _token, TimelockController _timelock, uint256 _timedelay, uint256 _timePeriod, uint256 _quorumpercentage )\r\n        Governor(\"GovernanceContract\")\r\n        GovernorSettings(_timedelay /* 1 block */, _timePeriod /* 1 week */, 0)\r\n        GovernorVotes(_token)\r\n        GovernorVotesQuorumFraction(_quorumpercentage)\r\n        GovernorTimelockControl(_timelock)\r\n    {}\r\n\r\n    // The following functions are overrides required by Solidity.\r\n\r\n    function votingDelay()\r\n        public\r\n        view\r\n        override(IGovernor, GovernorSettings)\r\n        returns (uint256)\r\n    {\r\n        return super.votingDelay();\r\n    }\r\n\r\n    function votingPeriod()\r\n        public\r\n        view\r\n        override(IGovernor, GovernorSettings)\r\n        returns (uint256)\r\n    {\r\n        return super.votingPeriod();\r\n    }\r\n\r\n    function quorum(uint256 blockNumber)\r\n        public\r\n        view\r\n        override(IGovernor, GovernorVotesQuorumFraction)\r\n        returns (uint256)\r\n    {\r\n        return super.quorum(blockNumber);\r\n    }\r\n\r\n    function getVotes(address account, uint256 blockNumber)\r\n        public\r\n        view\r\n        override(IGovernor, GovernorVotes)\r\n        returns (uint256)\r\n    {\r\n        return super.getVotes(account, blockNumber);\r\n    }\r\n\r\n    function state(uint256 proposalId)\r\n        public\r\n        view\r\n        override(Governor, GovernorTimelockControl)\r\n        returns (ProposalState)\r\n    {\r\n        return super.state(proposalId);\r\n    }\r\n\r\n    function propose(address[] memory targets, uint256[] memory values, bytes[] memory calldatas, string memory description)\r\n        public\r\n        override(Governor, IGovernor)\r\n        returns (uint256)\r\n    {\r\n        return super.propose(targets, values, calldatas, description);\r\n    }\r\n\r\n    function proposalThreshold()\r\n        public\r\n        view\r\n        override(Governor, GovernorSettings)\r\n        returns (uint256)\r\n    {\r\n        return super.proposalThreshold();\r\n    }\r\n\r\n    function _execute(uint256 proposalId, address[] memory targets, uint256[] memory values, bytes[] memory calldatas, bytes32 descriptionHash)\r\n        internal\r\n        override(Governor, GovernorTimelockControl)\r\n    {\r\n        super._execute(proposalId, targets, values, calldatas, descriptionHash);\r\n    }\r\n\r\n    function _cancel(address[] memory targets, uint256[] memory values, bytes[] memory calldatas, bytes32 descriptionHash)\r\n        internal\r\n        override(Governor, GovernorTimelockControl)\r\n        returns (uint256)\r\n    {\r\n        return super._cancel(targets, values, calldatas, descriptionHash);\r\n    }\r\n\r\n    function _executor()\r\n        internal\r\n        view\r\n        override(Governor, GovernorTimelockControl)\r\n        returns (address)\r\n    {\r\n        return super._executor();\r\n    }\r\n\r\n    function supportsInterface(bytes4 interfaceId)\r\n        public\r\n        view\r\n        override(Governor, GovernorTimelockControl)\r\n        returns (bool)\r\n    {\r\n        return super.supportsInterface(interfaceId);\r\n    }\r\n}\r\n",
  "sourcePath": "C:\\Users\\JS\\Desktop\\myDAO\\contracts\\GovernanceContract.sol",
  "compiler": {
    "name": "solc",
    "version": "0.8.10+commit.fc410830.Emscripten.clang"
  },
  "schemaVersion": "3.4.4",
  "updatedAt": "2022-03-05T14:03:18.422Z",
  "networkType": "ethereum",
  "devdoc": {
    "kind": "dev",
    "methods": {
      "COUNTING_MODE()": {
        "details": "See {IGovernor-COUNTING_MODE}."
      },
      "castVote(uint256,uint8)": {
        "details": "See {IGovernor-castVote}."
      },
      "castVoteBySig(uint256,uint8,uint8,bytes32,bytes32)": {
        "details": "See {IGovernor-castVoteBySig}."
      },
      "castVoteWithReason(uint256,uint8,string)": {
        "details": "See {IGovernor-castVoteWithReason}."
      },
      "execute(address[],uint256[],bytes[],bytes32)": {
        "details": "See {IGovernor-execute}."
      },
      "hasVoted(uint256,address)": {
        "details": "See {IGovernor-hasVoted}."
      },
      "hashProposal(address[],uint256[],bytes[],bytes32)": {
        "details": "See {IGovernor-hashProposal}. The proposal id is produced by hashing the RLC encoded `targets` array, the `values` array, the `calldatas` array and the descriptionHash (bytes32 which itself is the keccak256 hash of the description string). This proposal id can be produced from the proposal data which is part of the {ProposalCreated} event. It can even be computed in advance, before the proposal is submitted. Note that the chainId and the governor address are not part of the proposal id computation. Consequently, the same proposal (with same operation and same description) will have the same id if submitted on multiple governors accross multiple networks. This also means that in order to execute the same operation twice (on the same governor) the proposer will have to change the description in order to avoid proposal id conflicts."
      },
      "name()": {
        "details": "See {IGovernor-name}."
      },
      "proposalDeadline(uint256)": {
        "details": "See {IGovernor-proposalDeadline}."
      },
      "proposalEta(uint256)": {
        "details": "Public accessor to check the eta of a queued proposal"
      },
      "proposalSnapshot(uint256)": {
        "details": "See {IGovernor-proposalSnapshot}."
      },
      "proposalVotes(uint256)": {
        "details": "Accessor to the internal vote counts."
      },
      "queue(address[],uint256[],bytes[],bytes32)": {
        "details": "Function to queue a proposal to the timelock."
      },
      "quorumDenominator()": {
        "details": "Returns the quorum denominator. Defaults to 100, but may be overridden."
      },
      "quorumNumerator()": {
        "details": "Returns the current quorum numerator. See {quorumDenominator}."
      },
      "relay(address,uint256,bytes)": {
        "details": "Relays a transaction or function call to an arbitrary target. In cases where the governance executor is some contract other than the governor itself, like when using a timelock, this function can be invoked in a governance proposal to recover tokens or Ether that was sent to the governor contract by mistake. Note that if the executor is simply the governor itself, use of `relay` is redundant."
      },
      "setProposalThreshold(uint256)": {
        "details": "Update the proposal threshold. This operation can only be performed through a governance proposal. Emits a {ProposalThresholdSet} event."
      },
      "setVotingDelay(uint256)": {
        "details": "Update the voting delay. This operation can only be performed through a governance proposal. Emits a {VotingDelaySet} event."
      },
      "setVotingPeriod(uint256)": {
        "details": "Update the voting period. This operation can only be performed through a governance proposal. Emits a {VotingPeriodSet} event."
      },
      "timelock()": {
        "details": "Public accessor to check the address of the timelock"
      },
      "updateQuorumNumerator(uint256)": {
        "details": "Changes the quorum numerator. Emits a {QuorumNumeratorUpdated} event. Requirements: - Must be called through a governance proposal. - New numerator must be smaller or equal to the denominator."
      },
      "updateTimelock(address)": {
        "details": "Public endpoint to update the underlying timelock instance. Restricted to the timelock itself, so updates must be proposed, scheduled, and executed through governance proposals. CAUTION: It is not recommended to change the timelock while there are other queued governance proposals."
      },
      "version()": {
        "details": "See {IGovernor-version}."
      }
    },
    "version": 1
  },
  "userdoc": {
    "kind": "user",
    "methods": {},
    "version": 1
  }
}