{
  "contractName": "GovernanceToken",
  "abi": [
    {
      "inputs": [],
      "stateMutability": "nonpayable",
      "type": "constructor"
    },
    {
      "anonymous": false,
      "inputs": [
        {
          "indexed": true,
          "internalType": "address",
          "name": "owner",
          "type": "address"
        },
        {
          "indexed": true,
          "internalType": "address",
          "name": "spender",
          "type": "address"
        },
        {
          "indexed": false,
          "internalType": "uint256",
          "name": "value",
          "type": "uint256"
        }
      ],
      "name": "Approval",
      "type": "event"
    },
    {
      "anonymous": false,
      "inputs": [
        {
          "indexed": true,
          "internalType": "address",
          "name": "delegator",
          "type": "address"
        },
        {
          "indexed": true,
          "internalType": "address",
          "name": "fromDelegate",
          "type": "address"
        },
        {
          "indexed": true,
          "internalType": "address",
          "name": "toDelegate",
          "type": "address"
        }
      ],
      "name": "DelegateChanged",
      "type": "event"
    },
    {
      "anonymous": false,
      "inputs": [
        {
          "indexed": true,
          "internalType": "address",
          "name": "delegate",
          "type": "address"
        },
        {
          "indexed": false,
          "internalType": "uint256",
          "name": "previousBalance",
          "type": "uint256"
        },
        {
          "indexed": false,
          "internalType": "uint256",
          "name": "newBalance",
          "type": "uint256"
        }
      ],
      "name": "DelegateVotesChanged",
      "type": "event"
    },
    {
      "anonymous": false,
      "inputs": [
        {
          "indexed": true,
          "internalType": "address",
          "name": "from",
          "type": "address"
        },
        {
          "indexed": true,
          "internalType": "address",
          "name": "to",
          "type": "address"
        },
        {
          "indexed": false,
          "internalType": "uint256",
          "name": "value",
          "type": "uint256"
        }
      ],
      "name": "Transfer",
      "type": "event"
    },
    {
      "inputs": [],
      "name": "DOMAIN_SEPARATOR",
      "outputs": [
        {
          "internalType": "bytes32",
          "name": "",
          "type": "bytes32"
        }
      ],
      "stateMutability": "view",
      "type": "function",
      "constant": true
    },
    {
      "inputs": [
        {
          "internalType": "address",
          "name": "owner",
          "type": "address"
        },
        {
          "internalType": "address",
          "name": "spender",
          "type": "address"
        }
      ],
      "name": "allowance",
      "outputs": [
        {
          "internalType": "uint256",
          "name": "",
          "type": "uint256"
        }
      ],
      "stateMutability": "view",
      "type": "function",
      "constant": true
    },
    {
      "inputs": [
        {
          "internalType": "address",
          "name": "spender",
          "type": "address"
        },
        {
          "internalType": "uint256",
          "name": "amount",
          "type": "uint256"
        }
      ],
      "name": "approve",
      "outputs": [
        {
          "internalType": "bool",
          "name": "",
          "type": "bool"
        }
      ],
      "stateMutability": "nonpayable",
      "type": "function"
    },
    {
      "inputs": [
        {
          "internalType": "address",
          "name": "account",
          "type": "address"
        }
      ],
      "name": "balanceOf",
      "outputs": [
        {
          "internalType": "uint256",
          "name": "",
          "type": "uint256"
        }
      ],
      "stateMutability": "view",
      "type": "function",
      "constant": true
    },
    {
      "inputs": [
        {
          "internalType": "address",
          "name": "account",
          "type": "address"
        },
        {
          "internalType": "uint32",
          "name": "pos",
          "type": "uint32"
        }
      ],
      "name": "checkpoints",
      "outputs": [
        {
          "components": [
            {
              "internalType": "uint32",
              "name": "fromBlock",
              "type": "uint32"
            },
            {
              "internalType": "uint224",
              "name": "votes",
              "type": "uint224"
            }
          ],
          "internalType": "struct ERC20Votes.Checkpoint",
          "name": "",
          "type": "tuple"
        }
      ],
      "stateMutability": "view",
      "type": "function",
      "constant": true
    },
    {
      "inputs": [],
      "name": "decimals",
      "outputs": [
        {
          "internalType": "uint8",
          "name": "",
          "type": "uint8"
        }
      ],
      "stateMutability": "view",
      "type": "function",
      "constant": true
    },
    {
      "inputs": [
        {
          "internalType": "address",
          "name": "spender",
          "type": "address"
        },
        {
          "internalType": "uint256",
          "name": "subtractedValue",
          "type": "uint256"
        }
      ],
      "name": "decreaseAllowance",
      "outputs": [
        {
          "internalType": "bool",
          "name": "",
          "type": "bool"
        }
      ],
      "stateMutability": "nonpayable",
      "type": "function"
    },
    {
      "inputs": [
        {
          "internalType": "address",
          "name": "delegatee",
          "type": "address"
        }
      ],
      "name": "delegate",
      "outputs": [],
      "stateMutability": "nonpayable",
      "type": "function"
    },
    {
      "inputs": [
        {
          "internalType": "address",
          "name": "delegatee",
          "type": "address"
        },
        {
          "internalType": "uint256",
          "name": "nonce",
          "type": "uint256"
        },
        {
          "internalType": "uint256",
          "name": "expiry",
          "type": "uint256"
        },
        {
          "internalType": "uint8",
          "name": "v",
          "type": "uint8"
        },
        {
          "internalType": "bytes32",
          "name": "r",
          "type": "bytes32"
        },
        {
          "internalType": "bytes32",
          "name": "s",
          "type": "bytes32"
        }
      ],
      "name": "delegateBySig",
      "outputs": [],
      "stateMutability": "nonpayable",
      "type": "function"
    },
    {
      "inputs": [
        {
          "internalType": "address",
          "name": "account",
          "type": "address"
        }
      ],
      "name": "delegates",
      "outputs": [
        {
          "internalType": "address",
          "name": "",
          "type": "address"
        }
      ],
      "stateMutability": "view",
      "type": "function",
      "constant": true
    },
    {
      "inputs": [
        {
          "internalType": "uint256",
          "name": "blockNumber",
          "type": "uint256"
        }
      ],
      "name": "getPastTotalSupply",
      "outputs": [
        {
          "internalType": "uint256",
          "name": "",
          "type": "uint256"
        }
      ],
      "stateMutability": "view",
      "type": "function",
      "constant": true
    },
    {
      "inputs": [
        {
          "internalType": "address",
          "name": "account",
          "type": "address"
        },
        {
          "internalType": "uint256",
          "name": "blockNumber",
          "type": "uint256"
        }
      ],
      "name": "getPastVotes",
      "outputs": [
        {
          "internalType": "uint256",
          "name": "",
          "type": "uint256"
        }
      ],
      "stateMutability": "view",
      "type": "function",
      "constant": true
    },
    {
      "inputs": [
        {
          "internalType": "address",
          "name": "account",
          "type": "address"
        }
      ],
      "name": "getVotes",
      "outputs": [
        {
          "internalType": "uint256",
          "name": "",
          "type": "uint256"
        }
      ],
      "stateMutability": "view",
      "type": "function",
      "constant": true
    },
    {
      "inputs": [
        {
          "internalType": "address",
          "name": "spender",
          "type": "address"
        },
        {
          "internalType": "uint256",
          "name": "addedValue",
          "type": "uint256"
        }
      ],
      "name": "increaseAllowance",
      "outputs": [
        {
          "internalType": "bool",
          "name": "",
          "type": "bool"
        }
      ],
      "stateMutability": "nonpayable",
      "type": "function"
    },
    {
      "inputs": [],
      "name": "name",
      "outputs": [
        {
          "internalType": "string",
          "name": "",
          "type": "string"
        }
      ],
      "stateMutability": "view",
      "type": "function",
      "constant": true
    },
    {
      "inputs": [
        {
          "internalType": "address",
          "name": "owner",
          "type": "address"
        }
      ],
      "name": "nonces",
      "outputs": [
        {
          "internalType": "uint256",
          "name": "",
          "type": "uint256"
        }
      ],
      "stateMutability": "view",
      "type": "function",
      "constant": true
    },
    {
      "inputs": [
        {
          "internalType": "address",
          "name": "account",
          "type": "address"
        }
      ],
      "name": "numCheckpoints",
      "outputs": [
        {
          "internalType": "uint32",
          "name": "",
          "type": "uint32"
        }
      ],
      "stateMutability": "view",
      "type": "function",
      "constant": true
    },
    {
      "inputs": [
        {
          "internalType": "address",
          "name": "owner",
          "type": "address"
        },
        {
          "internalType": "address",
          "name": "spender",
          "type": "address"
        },
        {
          "internalType": "uint256",
          "name": "value",
          "type": "uint256"
        },
        {
          "internalType": "uint256",
          "name": "deadline",
          "type": "uint256"
        },
        {
          "internalType": "uint8",
          "name": "v",
          "type": "uint8"
        },
        {
          "internalType": "bytes32",
          "name": "r",
          "type": "bytes32"
        },
        {
          "internalType": "bytes32",
          "name": "s",
          "type": "bytes32"
        }
      ],
      "name": "permit",
      "outputs": [],
      "stateMutability": "nonpayable",
      "type": "function"
    },
    {
      "inputs": [],
      "name": "symbol",
      "outputs": [
        {
          "internalType": "string",
          "name": "",
          "type": "string"
        }
      ],
      "stateMutability": "view",
      "type": "function",
      "constant": true
    },
    {
      "inputs": [],
      "name": "totalSupply",
      "outputs": [
        {
          "internalType": "uint256",
          "name": "",
          "type": "uint256"
        }
      ],
      "stateMutability": "view",
      "type": "function",
      "constant": true
    },
    {
      "inputs": [
        {
          "internalType": "address",
          "name": "to",
          "type": "address"
        },
        {
          "internalType": "uint256",
          "name": "amount",
          "type": "uint256"
        }
      ],
      "name": "transfer",
      "outputs": [
        {
          "internalType": "bool",
          "name": "",
          "type": "bool"
        }
      ],
      "stateMutability": "nonpayable",
      "type": "function"
    },
    {
      "inputs": [
        {
          "internalType": "address",
          "name": "from",
          "type": "address"
        },
        {
          "internalType": "address",
          "name": "to",
          "type": "address"
        },
        {
          "internalType": "uint256",
          "name": "amount",
          "type": "uint256"
        }
      ],
      "name": "transferFrom",
      "outputs": [
        {
          "internalType": "bool",
          "name": "",
          "type": "bool"
        }
      ],
      "stateMutability": "nonpayable",
      "type": "function"
    }
  ],
  "bytecode": "0x6101606040527f6e71edae12b1b97f4d1f60370fef10105fa2faae0126114a169c64845d6126c96101409081525068056bc75e2d631000006009553480156200004757600080fd5b506040518060400160405280600f81526020017f476f7665726e616e6365546f6b656e0000000000000000000000000000000000815250806040518060400160405280600181526020017f31000000000000000000000000000000000000000000000000000000000000008152506040518060400160405280600f81526020017f476f7665726e616e6365546f6b656e00000000000000000000000000000000008152506040518060400160405280600281526020017f475400000000000000000000000000000000000000000000000000000000000081525081600390805190602001906200013992919062000b86565b5080600490805190602001906200015292919062000b86565b50505060008280519060200120905060008280519060200120905060007f8b73c3c69bb8fe3d512ecc4cf759cc79239f7b179b0ffacaa9a75d522b39400f90508260e081815250508161010081815250504660a08181525050620001be8184846200022260201b60201c565b608081815250503073ffffffffffffffffffffffffffffffffffffffff1660c08173ffffffffffffffffffffffffffffffffffffffff16815250508061012081815250505050505050506200021c336009546200025e60201b60201c565b620010fe565b600083838346306040516020016200023f95949392919062000cb1565b6040516020818303038152906040528051906020012090509392505050565b6200027582826200027960201b62000f611760201c565b5050565b6200029082826200033760201b62000fee1760201c565b620002a0620004b060201b60201c565b7bffffffffffffffffffffffffffffffffffffffffffffffffffffffff16620002ce620004d460201b60201c565b111562000312576040517f08c379a0000000000000000000000000000000000000000000000000000000008152600401620003099062000d95565b60405180910390fd5b620003316008620004de60201b6200114e1783620004f660201b60201c565b50505050565b600073ffffffffffffffffffffffffffffffffffffffff168273ffffffffffffffffffffffffffffffffffffffff161415620003aa576040517f08c379a0000000000000000000000000000000000000000000000000000000008152600401620003a19062000e07565b60405180910390fd5b620003be60008383620007a760201b60201c565b8060026000828254620003d2919062000e58565b92505081905550806000808473ffffffffffffffffffffffffffffffffffffffff1673ffffffffffffffffffffffffffffffffffffffff168152602001908152602001600020600082825462000429919062000e58565b925050819055508173ffffffffffffffffffffffffffffffffffffffff16600073ffffffffffffffffffffffffffffffffffffffff167fddf252ad1be2c89b69c2b068fc378daa952ba7f163c4a11628f55a4df523b3ef8360405162000490919062000eb5565b60405180910390a3620004ac60008383620007ac60201b60201c565b5050565b60007bffffffffffffffffffffffffffffffffffffffffffffffffffffffff905090565b6000600254905090565b60008183620004ee919062000e58565b905092915050565b600080600085805490509050600081146200056b57856001826200051b919062000ed2565b815481106200052f576200052e62000f0d565b5b9060005260206000200160000160049054906101000a90047bffffffffffffffffffffffffffffffffffffffffffffffffffffffff166200056e565b60005b7bffffffffffffffffffffffffffffffffffffffffffffffffffffffff1692506200059a83858760201c565b9150600081118015620005f357504386600183620005b9919062000ed2565b81548110620005cd57620005cc62000f0d565b5b9060005260206000200160000160009054906101000a900463ffffffff1663ffffffff16145b1562000694576200060f82620007c960201b620011641760201c565b866001836200061f919062000ed2565b8154811062000633576200063262000f0d565b5b9060005260206000200160000160046101000a8154817bffffffffffffffffffffffffffffffffffffffffffffffffffffffff02191690837bffffffffffffffffffffffffffffffffffffffffffffffffffffffff1602179055506200079e565b856040518060400160405280620006b6436200083760201b620011cf1760201c565b63ffffffff168152602001620006d785620007c960201b620011641760201c565b7bffffffffffffffffffffffffffffffffffffffffffffffffffffffff168152509080600181540180825580915050600190039060005260206000200160009091909190915060008201518160000160006101000a81548163ffffffff021916908363ffffffff16021790555060208201518160000160046101000a8154817bffffffffffffffffffffffffffffffffffffffffffffffffffffffff02191690837bffffffffffffffffffffffffffffffffffffffffffffffffffffffff16021790555050505b50935093915050565b505050565b620007c48383836200088d60201b620012221760201c565b505050565b60007bffffffffffffffffffffffffffffffffffffffffffffffffffffffff80168211156200082f576040517f08c379a0000000000000000000000000000000000000000000000000000000008152600401620008269062000fb2565b60405180910390fd5b819050919050565b600063ffffffff801682111562000885576040517f08c379a00000000000000000000000000000000000000000000000000000000081526004016200087c906200104a565b60405180910390fd5b819050919050565b620008a5838383620008dd60201b6200124d1760201c565b620008d8620008ba84620008e260201b60201c565b620008cb84620008e260201b60201c565b836200094b60201b60201c565b505050565b505050565b6000600660008373ffffffffffffffffffffffffffffffffffffffff1673ffffffffffffffffffffffffffffffffffffffff16815260200190815260200160002060009054906101000a900473ffffffffffffffffffffffffffffffffffffffff169050919050565b8173ffffffffffffffffffffffffffffffffffffffff168373ffffffffffffffffffffffffffffffffffffffff1614158015620009885750600081115b1562000b6957600073ffffffffffffffffffffffffffffffffffffffff168373ffffffffffffffffffffffffffffffffffffffff161462000a7b5760008062000a22600760008773ffffffffffffffffffffffffffffffffffffffff1673ffffffffffffffffffffffffffffffffffffffff16815260200190815260200160002062000b6e60201b620012521785620004f660201b60201c565b915091508473ffffffffffffffffffffffffffffffffffffffff167fdec2bacdd2f05b59de34da9b523dff8be42e5e38e818c82fdb0bae774387a724838360405162000a709291906200106c565b60405180910390a250505b600073ffffffffffffffffffffffffffffffffffffffff168273ffffffffffffffffffffffffffffffffffffffff161462000b685760008062000b0f600760008673ffffffffffffffffffffffffffffffffffffffff1673ffffffffffffffffffffffffffffffffffffffff168152602001908152602001600020620004de60201b6200114e1785620004f660201b60201c565b915091508373ffffffffffffffffffffffffffffffffffffffff167fdec2bacdd2f05b59de34da9b523dff8be42e5e38e818c82fdb0bae774387a724838360405162000b5d9291906200106c565b60405180910390a250505b5b505050565b6000818362000b7e919062000ed2565b905092915050565b82805462000b9490620010c8565b90600052602060002090601f01602090048101928262000bb8576000855562000c04565b82601f1062000bd357805160ff191683800117855562000c04565b8280016001018555821562000c04579182015b8281111562000c0357825182559160200191906001019062000be6565b5b50905062000c13919062000c17565b5090565b5b8082111562000c3257600081600090555060010162000c18565b5090565b6000819050919050565b62000c4b8162000c36565b82525050565b6000819050919050565b62000c668162000c51565b82525050565b600073ffffffffffffffffffffffffffffffffffffffff82169050919050565b600062000c998262000c6c565b9050919050565b62000cab8162000c8c565b82525050565b600060a08201905062000cc8600083018862000c40565b62000cd7602083018762000c40565b62000ce6604083018662000c40565b62000cf5606083018562000c5b565b62000d04608083018462000ca0565b9695505050505050565b600082825260208201905092915050565b7f4552433230566f7465733a20746f74616c20737570706c79207269736b73206f60008201527f766572666c6f77696e6720766f74657300000000000000000000000000000000602082015250565b600062000d7d60308362000d0e565b915062000d8a8262000d1f565b604082019050919050565b6000602082019050818103600083015262000db08162000d6e565b9050919050565b7f45524332303a206d696e7420746f20746865207a65726f206164647265737300600082015250565b600062000def601f8362000d0e565b915062000dfc8262000db7565b602082019050919050565b6000602082019050818103600083015262000e228162000de0565b9050919050565b7f4e487b7100000000000000000000000000000000000000000000000000000000600052601160045260246000fd5b600062000e658262000c51565b915062000e728362000c51565b9250827fffffffffffffffffffffffffffffffffffffffffffffffffffffffffffffffff0382111562000eaa5762000ea962000e29565b5b828201905092915050565b600060208201905062000ecc600083018462000c5b565b92915050565b600062000edf8262000c51565b915062000eec8362000c51565b92508282101562000f025762000f0162000e29565b5b828203905092915050565b7f4e487b7100000000000000000000000000000000000000000000000000000000600052603260045260246000fd5b7f53616665436173743a2076616c756520646f65736e27742066697420696e203260008201527f3234206269747300000000000000000000000000000000000000000000000000602082015250565b600062000f9a60278362000d0e565b915062000fa78262000f3c565b604082019050919050565b6000602082019050818103600083015262000fcd8162000f8b565b9050919050565b7f53616665436173743a2076616c756520646f65736e27742066697420696e203360008201527f3220626974730000000000000000000000000000000000000000000000000000602082015250565b60006200103260268362000d0e565b91506200103f8262000fd4565b604082019050919050565b60006020820190508181036000830152620010658162001023565b9050919050565b600060408201905062001083600083018562000c5b565b62001092602083018462000c5b565b9392505050565b7f4e487b7100000000000000000000000000000000000000000000000000000000600052602260045260246000fd5b60006002820490506001821680620010e157607f821691505b60208210811415620010f857620010f762001099565b5b50919050565b60805160a05160c05160e051610100516101205161014051613815620011596000396000610ccf015260006117f601526000611838015260006118170152600061174c015260006117a2015260006117cb01526138156000f3fe608060405234801561001057600080fd5b50600436106101425760003560e01c806370a08231116100b8578063a457c2d71161007c578063a457c2d7146103d9578063a9059cbb14610409578063c3cda52014610439578063d505accf14610455578063dd62ed3e14610471578063f1127ed8146104a157610142565b806370a08231146102fb5780637ecebe001461032b5780638e539e8c1461035b57806395d89b411461038b5780639ab24eb0146103a957610142565b80633644e5151161010a5780633644e51514610201578063395093511461021f5780633a46b1a81461024f578063587cde1e1461027f5780635c19a95c146102af5780636fcfff45146102cb57610142565b806306fdde0314610147578063095ea7b31461016557806318160ddd1461019557806323b872dd146101b3578063313ce567146101e3575b600080fd5b61014f6104d1565b60405161015c9190612445565b60405180910390f35b61017f600480360381019061017a9190612500565b610563565b60405161018c919061255b565b60405180910390f35b61019d610586565b6040516101aa9190612585565b60405180910390f35b6101cd60048036038101906101c891906125a0565b610590565b6040516101da919061255b565b60405180910390f35b6101eb6105bf565b6040516101f8919061260f565b60405180910390f35b6102096105c8565b6040516102169190612643565b60405180910390f35b61023960048036038101906102349190612500565b6105d7565b604051610246919061255b565b60405180910390f35b61026960048036038101906102649190612500565b610681565b6040516102769190612585565b60405180910390f35b6102996004803603810190610294919061265e565b610715565b6040516102a6919061269a565b60405180910390f35b6102c960048036038101906102c4919061265e565b61077e565b005b6102e560048036038101906102e0919061265e565b610792565b6040516102f291906126d4565b60405180910390f35b6103156004803603810190610310919061265e565b6107e6565b6040516103229190612585565b60405180910390f35b6103456004803603810190610340919061265e565b61082e565b6040516103529190612585565b60405180910390f35b610375600480360381019061037091906126ef565b61087e565b6040516103829190612585565b60405180910390f35b6103936108d4565b6040516103a09190612445565b60405180910390f35b6103c360048036038101906103be919061265e565b610966565b6040516103d09190612585565b60405180910390f35b6103f360048036038101906103ee9190612500565b610a77565b604051610400919061255b565b60405180910390f35b610423600480360381019061041e9190612500565b610b61565b604051610430919061255b565b60405180910390f35b610453600480360381019061044e9190612774565b610b84565b005b61046f600480360381019061046a9190612801565b610c88565b005b61048b600480360381019061048691906128a3565b610dca565b6040516104989190612585565b60405180910390f35b6104bb60048036038101906104b6919061290f565b610e51565b6040516104c891906129c4565b60405180910390f35b6060600380546104e090612a0e565b80601f016020809104026020016040519081016040528092919081815260200182805461050c90612a0e565b80156105595780601f1061052e57610100808354040283529160200191610559565b820191906000526020600020905b81548152906001019060200180831161053c57829003601f168201915b5050505050905090565b60008061056e611268565b905061057b818585611270565b600191505092915050565b6000600254905090565b60008061059b611268565b90506105a885828561143b565b6105b38585856114c7565b60019150509392505050565b60006012905090565b60006105d2611748565b905090565b6000806105e2611268565b9050610676818585600160008673ffffffffffffffffffffffffffffffffffffffff1673ffffffffffffffffffffffffffffffffffffffff16815260200190815260200160002060008973ffffffffffffffffffffffffffffffffffffffff1673ffffffffffffffffffffffffffffffffffffffff168152602001908152602001600020546106719190612a6f565b611270565b600191505092915050565b60004382106106c5576040517f08c379a00000000000000000000000000000000000000000000000000000000081526004016106bc90612b11565b60405180910390fd5b61070d600760008573ffffffffffffffffffffffffffffffffffffffff1673ffffffffffffffffffffffffffffffffffffffff16815260200190815260200160002083611862565b905092915050565b6000600660008373ffffffffffffffffffffffffffffffffffffffff1673ffffffffffffffffffffffffffffffffffffffff16815260200190815260200160002060009054906101000a900473ffffffffffffffffffffffffffffffffffffffff169050919050565b61078f610789611268565b8261196e565b50565b60006107df600760008473ffffffffffffffffffffffffffffffffffffffff1673ffffffffffffffffffffffffffffffffffffffff168152602001908152602001600020805490506111cf565b9050919050565b60008060008373ffffffffffffffffffffffffffffffffffffffff1673ffffffffffffffffffffffffffffffffffffffff168152602001908152602001600020549050919050565b6000610877600560008473ffffffffffffffffffffffffffffffffffffffff1673ffffffffffffffffffffffffffffffffffffffff168152602001908152602001600020611a88565b9050919050565b60004382106108c2576040517f08c379a00000000000000000000000000000000000000000000000000000000081526004016108b990612b11565b60405180910390fd5b6108cd600883611862565b9050919050565b6060600480546108e390612a0e565b80601f016020809104026020016040519081016040528092919081815260200182805461090f90612a0e565b801561095c5780601f106109315761010080835404028352916020019161095c565b820191906000526020600020905b81548152906001019060200180831161093f57829003601f168201915b5050505050905090565b600080600760008473ffffffffffffffffffffffffffffffffffffffff1673ffffffffffffffffffffffffffffffffffffffff16815260200190815260200160002080549050905060008114610a4e57600760008473ffffffffffffffffffffffffffffffffffffffff1673ffffffffffffffffffffffffffffffffffffffff168152602001908152602001600020600182610a029190612b31565b81548110610a1357610a12612b65565b5b9060005260206000200160000160049054906101000a90047bffffffffffffffffffffffffffffffffffffffffffffffffffffffff16610a51565b60005b7bffffffffffffffffffffffffffffffffffffffffffffffffffffffff16915050919050565b600080610a82611268565b90506000600160008373ffffffffffffffffffffffffffffffffffffffff1673ffffffffffffffffffffffffffffffffffffffff16815260200190815260200160002060008673ffffffffffffffffffffffffffffffffffffffff1673ffffffffffffffffffffffffffffffffffffffff16815260200190815260200160002054905083811015610b48576040517f08c379a0000000000000000000000000000000000000000000000000000000008152600401610b3f90612c06565b60405180910390fd5b610b558286868403611270565b60019250505092915050565b600080610b6c611268565b9050610b798185856114c7565b600191505092915050565b83421115610bc7576040517f08c379a0000000000000000000000000000000000000000000000000000000008152600401610bbe90612c72565b60405180910390fd5b6000610c29610c217fe48329057bfd03d55e49b547132e39cffd9c1820ad7b9d4c5307691425d15adf898989604051602001610c069493929190612c92565b60405160208183030381529060405280519060200120611a96565b858585611ab0565b9050610c3481611adb565b8614610c75576040517f08c379a0000000000000000000000000000000000000000000000000000000008152600401610c6c90612d23565b60405180910390fd5b610c7f818861196e565b50505050505050565b83421115610ccb576040517f08c379a0000000000000000000000000000000000000000000000000000000008152600401610cc290612d8f565b60405180910390fd5b60007f0000000000000000000000000000000000000000000000000000000000000000888888610cfa8c611adb565b89604051602001610d1096959493929190612daf565b6040516020818303038152906040528051906020012090506000610d3382611a96565b90506000610d4382878787611ab0565b90508973ffffffffffffffffffffffffffffffffffffffff168173ffffffffffffffffffffffffffffffffffffffff1614610db3576040517f08c379a0000000000000000000000000000000000000000000000000000000008152600401610daa90612e5c565b60405180910390fd5b610dbe8a8a8a611270565b50505050505050505050565b6000600160008473ffffffffffffffffffffffffffffffffffffffff1673ffffffffffffffffffffffffffffffffffffffff16815260200190815260200160002060008373ffffffffffffffffffffffffffffffffffffffff1673ffffffffffffffffffffffffffffffffffffffff16815260200190815260200160002054905092915050565b610e5961236e565b600760008473ffffffffffffffffffffffffffffffffffffffff1673ffffffffffffffffffffffffffffffffffffffff1681526020019081526020016000208263ffffffff1681548110610eb057610eaf612b65565b5b906000526020600020016040518060400160405290816000820160009054906101000a900463ffffffff1663ffffffff1663ffffffff1681526020016000820160049054906101000a90047bffffffffffffffffffffffffffffffffffffffffffffffffffffffff167bffffffffffffffffffffffffffffffffffffffffffffffffffffffff167bffffffffffffffffffffffffffffffffffffffffffffffffffffffff1681525050905092915050565b610f6b8282610fee565b610f73611b39565b7bffffffffffffffffffffffffffffffffffffffffffffffffffffffff16610f99610586565b1115610fda576040517f08c379a0000000000000000000000000000000000000000000000000000000008152600401610fd190612eee565b60405180910390fd5b610fe8600861114e83611b5d565b50505050565b600073ffffffffffffffffffffffffffffffffffffffff168273ffffffffffffffffffffffffffffffffffffffff16141561105e576040517f08c379a000000000000000000000000000000000000000000000000000000000815260040161105590612f5a565b60405180910390fd5b61106a60008383611dd5565b806002600082825461107c9190612a6f565b92505081905550806000808473ffffffffffffffffffffffffffffffffffffffff1673ffffffffffffffffffffffffffffffffffffffff16815260200190815260200160002060008282546110d19190612a6f565b925050819055508173ffffffffffffffffffffffffffffffffffffffff16600073ffffffffffffffffffffffffffffffffffffffff167fddf252ad1be2c89b69c2b068fc378daa952ba7f163c4a11628f55a4df523b3ef836040516111369190612585565b60405180910390a361114a60008383611dda565b5050565b6000818361115c9190612a6f565b905092915050565b60007bffffffffffffffffffffffffffffffffffffffffffffffffffffffff80168211156111c7576040517f08c379a00000000000000000000000000000000000000000000000000000000081526004016111be90612fec565b60405180910390fd5b819050919050565b600063ffffffff801682111561121a576040517f08c379a00000000000000000000000000000000000000000000000000000000081526004016112119061307e565b60405180910390fd5b819050919050565b61122d83838361124d565b61124861123984610715565b61124284610715565b83611dea565b505050565b505050565b600081836112609190612b31565b905092915050565b600033905090565b600073ffffffffffffffffffffffffffffffffffffffff168373ffffffffffffffffffffffffffffffffffffffff1614156112e0576040517f08c379a00000000000000000000000000000000000000000000000000000000081526004016112d790613110565b60405180910390fd5b600073ffffffffffffffffffffffffffffffffffffffff168273ffffffffffffffffffffffffffffffffffffffff161415611350576040517f08c379a0000000000000000000000000000000000000000000000000000000008152600401611347906131a2565b60405180910390fd5b80600160008573ffffffffffffffffffffffffffffffffffffffff1673ffffffffffffffffffffffffffffffffffffffff16815260200190815260200160002060008473ffffffffffffffffffffffffffffffffffffffff1673ffffffffffffffffffffffffffffffffffffffff168152602001908152602001600020819055508173ffffffffffffffffffffffffffffffffffffffff168373ffffffffffffffffffffffffffffffffffffffff167f8c5be1e5ebec7d5bd14f71427d1e84f3dd0314c0f7b2291e5b200ac8c7c3b9258360405161142e9190612585565b60405180910390a3505050565b60006114478484610dca565b90507fffffffffffffffffffffffffffffffffffffffffffffffffffffffffffffffff81146114c157818110156114b3576040517f08c379a00000000000000000000000000000000000000000000000000000000081526004016114aa9061320e565b60405180910390fd5b6114c08484848403611270565b5b50505050565b600073ffffffffffffffffffffffffffffffffffffffff168373ffffffffffffffffffffffffffffffffffffffff161415611537576040517f08c379a000000000000000000000000000000000000000000000000000000000815260040161152e906132a0565b60405180910390fd5b600073ffffffffffffffffffffffffffffffffffffffff168273ffffffffffffffffffffffffffffffffffffffff1614156115a7576040517f08c379a000000000000000000000000000000000000000000000000000000000815260040161159e90613332565b60405180910390fd5b6115b2838383611dd5565b60008060008573ffffffffffffffffffffffffffffffffffffffff1673ffffffffffffffffffffffffffffffffffffffff16815260200190815260200160002054905081811015611638576040517f08c379a000000000000000000000000000000000000000000000000000000000815260040161162f906133c4565b60405180910390fd5b8181036000808673ffffffffffffffffffffffffffffffffffffffff1673ffffffffffffffffffffffffffffffffffffffff16815260200190815260200160002081905550816000808573ffffffffffffffffffffffffffffffffffffffff1673ffffffffffffffffffffffffffffffffffffffff16815260200190815260200160002060008282546116cb9190612a6f565b925050819055508273ffffffffffffffffffffffffffffffffffffffff168473ffffffffffffffffffffffffffffffffffffffff167fddf252ad1be2c89b69c2b068fc378daa952ba7f163c4a11628f55a4df523b3ef8460405161172f9190612585565b60405180910390a3611742848484611dda565b50505050565b60007f000000000000000000000000000000000000000000000000000000000000000073ffffffffffffffffffffffffffffffffffffffff163073ffffffffffffffffffffffffffffffffffffffff161480156117c457507f000000000000000000000000000000000000000000000000000000000000000046145b156117f1577f0000000000000000000000000000000000000000000000000000000000000000905061185f565b61185c7f00000000000000000000000000000000000000000000000000000000000000007f00000000000000000000000000000000000000000000000000000000000000007f0000000000000000000000000000000000000000000000000000000000000000611fe3565b90505b90565b6000808380549050905060005b818110156118e1576000611883828461201d565b90508486828154811061189957611898612b65565b5b9060005260206000200160000160009054906101000a900463ffffffff1663ffffffff1611156118cb578092506118db565b6001816118d89190612a6f565b91505b5061186f565b6000821461194357846001836118f79190612b31565b8154811061190857611907612b65565b5b9060005260206000200160000160049054906101000a90047bffffffffffffffffffffffffffffffffffffffffffffffffffffffff16611946565b60005b7bffffffffffffffffffffffffffffffffffffffffffffffffffffffff169250505092915050565b600061197983610715565b90506000611986846107e6565b905082600660008673ffffffffffffffffffffffffffffffffffffffff1673ffffffffffffffffffffffffffffffffffffffff16815260200190815260200160002060006101000a81548173ffffffffffffffffffffffffffffffffffffffff021916908373ffffffffffffffffffffffffffffffffffffffff1602179055508273ffffffffffffffffffffffffffffffffffffffff168273ffffffffffffffffffffffffffffffffffffffff168573ffffffffffffffffffffffffffffffffffffffff167f3134e8a2e6d97e929a7e54011ea5485d7d196dd5f0ba4d4ef95803e8e3fc257f60405160405180910390a4611a82828483611dea565b50505050565b600081600001549050919050565b6000611aa9611aa3611748565b83612043565b9050919050565b6000806000611ac187878787612076565b91509150611ace81612183565b8192505050949350505050565b600080600560008473ffffffffffffffffffffffffffffffffffffffff1673ffffffffffffffffffffffffffffffffffffffff1681526020019081526020016000209050611b2881611a88565b9150611b3381612358565b50919050565b60007bffffffffffffffffffffffffffffffffffffffffffffffffffffffff905090565b60008060008580549050905060008114611bcb5785600182611b7f9190612b31565b81548110611b9057611b8f612b65565b5b9060005260206000200160000160049054906101000a90047bffffffffffffffffffffffffffffffffffffffffffffffffffffffff16611bce565b60005b7bffffffffffffffffffffffffffffffffffffffffffffffffffffffff169250611bfc83858763ffffffff16565b9150600081118015611c4f57504386600183611c189190612b31565b81548110611c2957611c28612b65565b5b9060005260206000200160000160009054906101000a900463ffffffff1663ffffffff16145b15611cdc57611c5d82611164565b86600183611c6b9190612b31565b81548110611c7c57611c7b612b65565b5b9060005260206000200160000160046101000a8154817bffffffffffffffffffffffffffffffffffffffffffffffffffffffff02191690837bffffffffffffffffffffffffffffffffffffffffffffffffffffffff160217905550611dcc565b856040518060400160405280611cf1436111cf565b63ffffffff168152602001611d0585611164565b7bffffffffffffffffffffffffffffffffffffffffffffffffffffffff168152509080600181540180825580915050600190039060005260206000200160009091909190915060008201518160000160006101000a81548163ffffffff021916908363ffffffff16021790555060208201518160000160046101000a8154817bffffffffffffffffffffffffffffffffffffffffffffffffffffffff02191690837bffffffffffffffffffffffffffffffffffffffffffffffffffffffff16021790555050505b50935093915050565b505050565b611de5838383611222565b505050565b8173ffffffffffffffffffffffffffffffffffffffff168373ffffffffffffffffffffffffffffffffffffffff1614158015611e265750600081115b15611fde57600073ffffffffffffffffffffffffffffffffffffffff168373ffffffffffffffffffffffffffffffffffffffff1614611f0457600080611ead600760008773ffffffffffffffffffffffffffffffffffffffff1673ffffffffffffffffffffffffffffffffffffffff16815260200190815260200160002061125285611b5d565b915091508473ffffffffffffffffffffffffffffffffffffffff167fdec2bacdd2f05b59de34da9b523dff8be42e5e38e818c82fdb0bae774387a7248383604051611ef99291906133e4565b60405180910390a250505b600073ffffffffffffffffffffffffffffffffffffffff168273ffffffffffffffffffffffffffffffffffffffff1614611fdd57600080611f86600760008673ffffffffffffffffffffffffffffffffffffffff1673ffffffffffffffffffffffffffffffffffffffff16815260200190815260200160002061114e85611b5d565b915091508373ffffffffffffffffffffffffffffffffffffffff167fdec2bacdd2f05b59de34da9b523dff8be42e5e38e818c82fdb0bae774387a7248383604051611fd29291906133e4565b60405180910390a250505b5b505050565b60008383834630604051602001611ffe95949392919061340d565b6040516020818303038152906040528051906020012090509392505050565b6000600282841861202e919061348f565b82841661203b9190612a6f565b905092915050565b60008282604051602001612058929190613538565b60405160208183030381529060405280519060200120905092915050565b6000807f7fffffffffffffffffffffffffffffff5d576e7357a4501ddfe92f46681b20a08360001c11156120b157600060039150915061217a565b601b8560ff16141580156120c95750601c8560ff1614155b156120db57600060049150915061217a565b600060018787878760405160008152602001604052604051612100949392919061356f565b6020604051602081039080840390855afa158015612122573d6000803e3d6000fd5b505050602060405103519050600073ffffffffffffffffffffffffffffffffffffffff168173ffffffffffffffffffffffffffffffffffffffff1614156121715760006001925092505061217a565b80600092509250505b94509492505050565b60006004811115612197576121966135b4565b5b8160048111156121aa576121a96135b4565b5b14156121b557612355565b600160048111156121c9576121c86135b4565b5b8160048111156121dc576121db6135b4565b5b141561221d576040517f08c379a00000000000000000000000000000000000000000000000000000000081526004016122149061362f565b60405180910390fd5b60026004811115612231576122306135b4565b5b816004811115612244576122436135b4565b5b1415612285576040517f08c379a000000000000000000000000000000000000000000000000000000000815260040161227c9061369b565b60405180910390fd5b60036004811115612299576122986135b4565b5b8160048111156122ac576122ab6135b4565b5b14156122ed576040517f08c379a00000000000000000000000000000000000000000000000000000000081526004016122e49061372d565b60405180910390fd5b600480811115612300576122ff6135b4565b5b816004811115612313576123126135b4565b5b1415612354576040517f08c379a000000000000000000000000000000000000000000000000000000000815260040161234b906137bf565b60405180910390fd5b5b50565b6001816000016000828254019250508190555050565b6040518060400160405280600063ffffffff16815260200160007bffffffffffffffffffffffffffffffffffffffffffffffffffffffff1681525090565b600081519050919050565b600082825260208201905092915050565b60005b838110156123e65780820151818401526020810190506123cb565b838111156123f5576000848401525b50505050565b6000601f19601f8301169050919050565b6000612417826123ac565b61242181856123b7565b93506124318185602086016123c8565b61243a816123fb565b840191505092915050565b6000602082019050818103600083015261245f818461240c565b905092915050565b600080fd5b600073ffffffffffffffffffffffffffffffffffffffff82169050919050565b60006124978261246c565b9050919050565b6124a78161248c565b81146124b257600080fd5b50565b6000813590506124c48161249e565b92915050565b6000819050919050565b6124dd816124ca565b81146124e857600080fd5b50565b6000813590506124fa816124d4565b92915050565b6000806040838503121561251757612516612467565b5b6000612525858286016124b5565b9250506020612536858286016124eb565b9150509250929050565b60008115159050919050565b61255581612540565b82525050565b6000602082019050612570600083018461254c565b92915050565b61257f816124ca565b82525050565b600060208201905061259a6000830184612576565b92915050565b6000806000606084860312156125b9576125b8612467565b5b60006125c7868287016124b5565b93505060206125d8868287016124b5565b92505060406125e9868287016124eb565b9150509250925092565b600060ff82169050919050565b612609816125f3565b82525050565b60006020820190506126246000830184612600565b92915050565b6000819050919050565b61263d8161262a565b82525050565b60006020820190506126586000830184612634565b92915050565b60006020828403121561267457612673612467565b5b6000612682848285016124b5565b91505092915050565b6126948161248c565b82525050565b60006020820190506126af600083018461268b565b92915050565b600063ffffffff82169050919050565b6126ce816126b5565b82525050565b60006020820190506126e960008301846126c5565b92915050565b60006020828403121561270557612704612467565b5b6000612713848285016124eb565b91505092915050565b612725816125f3565b811461273057600080fd5b50565b6000813590506127428161271c565b92915050565b6127518161262a565b811461275c57600080fd5b50565b60008135905061276e81612748565b92915050565b60008060008060008060c0878903121561279157612790612467565b5b600061279f89828a016124b5565b96505060206127b089828a016124eb565b95505060406127c189828a016124eb565b94505060606127d289828a01612733565b93505060806127e389828a0161275f565b92505060a06127f489828a0161275f565b9150509295509295509295565b600080600080600080600060e0888a0312156128205761281f612467565b5b600061282e8a828b016124b5565b975050602061283f8a828b016124b5565b96505060406128508a828b016124eb565b95505060606128618a828b016124eb565b94505060806128728a828b01612733565b93505060a06128838a828b0161275f565b92505060c06128948a828b0161275f565b91505092959891949750929550565b600080604083850312156128ba576128b9612467565b5b60006128c8858286016124b5565b92505060206128d9858286016124b5565b9150509250929050565b6128ec816126b5565b81146128f757600080fd5b50565b600081359050612909816128e3565b92915050565b6000806040838503121561292657612925612467565b5b6000612934858286016124b5565b9250506020612945858286016128fa565b9150509250929050565b612958816126b5565b82525050565b60007bffffffffffffffffffffffffffffffffffffffffffffffffffffffff82169050919050565b61298f8161295e565b82525050565b6040820160008201516129ab600085018261294f565b5060208201516129be6020850182612986565b50505050565b60006040820190506129d96000830184612995565b92915050565b7f4e487b7100000000000000000000000000000000000000000000000000000000600052602260045260246000fd5b60006002820490506001821680612a2657607f821691505b60208210811415612a3a57612a396129df565b5b50919050565b7f4e487b7100000000000000000000000000000000000000000000000000000000600052601160045260246000fd5b6000612a7a826124ca565b9150612a85836124ca565b9250827fffffffffffffffffffffffffffffffffffffffffffffffffffffffffffffffff03821115612aba57612ab9612a40565b5b828201905092915050565b7f4552433230566f7465733a20626c6f636b206e6f7420796574206d696e656400600082015250565b6000612afb601f836123b7565b9150612b0682612ac5565b602082019050919050565b60006020820190508181036000830152612b2a81612aee565b9050919050565b6000612b3c826124ca565b9150612b47836124ca565b925082821015612b5a57612b59612a40565b5b828203905092915050565b7f4e487b7100000000000000000000000000000000000000000000000000000000600052603260045260246000fd5b7f45524332303a2064656372656173656420616c6c6f77616e63652062656c6f7760008201527f207a65726f000000000000000000000000000000000000000000000000000000602082015250565b6000612bf06025836123b7565b9150612bfb82612b94565b604082019050919050565b60006020820190508181036000830152612c1f81612be3565b9050919050565b7f4552433230566f7465733a207369676e61747572652065787069726564000000600082015250565b6000612c5c601d836123b7565b9150612c6782612c26565b602082019050919050565b60006020820190508181036000830152612c8b81612c4f565b9050919050565b6000608082019050612ca76000830187612634565b612cb4602083018661268b565b612cc16040830185612576565b612cce6060830184612576565b95945050505050565b7f4552433230566f7465733a20696e76616c6964206e6f6e636500000000000000600082015250565b6000612d0d6019836123b7565b9150612d1882612cd7565b602082019050919050565b60006020820190508181036000830152612d3c81612d00565b9050919050565b7f45524332305065726d69743a206578706972656420646561646c696e65000000600082015250565b6000612d79601d836123b7565b9150612d8482612d43565b602082019050919050565b60006020820190508181036000830152612da881612d6c565b9050919050565b600060c082019050612dc46000830189612634565b612dd1602083018861268b565b612dde604083018761268b565b612deb6060830186612576565b612df86080830185612576565b612e0560a0830184612576565b979650505050505050565b7f45524332305065726d69743a20696e76616c6964207369676e61747572650000600082015250565b6000612e46601e836123b7565b9150612e5182612e10565b602082019050919050565b60006020820190508181036000830152612e7581612e39565b9050919050565b7f4552433230566f7465733a20746f74616c20737570706c79207269736b73206f60008201527f766572666c6f77696e6720766f74657300000000000000000000000000000000602082015250565b6000612ed86030836123b7565b9150612ee382612e7c565b604082019050919050565b60006020820190508181036000830152612f0781612ecb565b9050919050565b7f45524332303a206d696e7420746f20746865207a65726f206164647265737300600082015250565b6000612f44601f836123b7565b9150612f4f82612f0e565b602082019050919050565b60006020820190508181036000830152612f7381612f37565b9050919050565b7f53616665436173743a2076616c756520646f65736e27742066697420696e203260008201527f3234206269747300000000000000000000000000000000000000000000000000602082015250565b6000612fd66027836123b7565b9150612fe182612f7a565b604082019050919050565b6000602082019050818103600083015261300581612fc9565b9050919050565b7f53616665436173743a2076616c756520646f65736e27742066697420696e203360008201527f3220626974730000000000000000000000000000000000000000000000000000602082015250565b60006130686026836123b7565b91506130738261300c565b604082019050919050565b600060208201905081810360008301526130978161305b565b9050919050565b7f45524332303a20617070726f76652066726f6d20746865207a65726f2061646460008201527f7265737300000000000000000000000000000000000000000000000000000000602082015250565b60006130fa6024836123b7565b91506131058261309e565b604082019050919050565b60006020820190508181036000830152613129816130ed565b9050919050565b7f45524332303a20617070726f766520746f20746865207a65726f20616464726560008201527f7373000000000000000000000000000000000000000000000000000000000000602082015250565b600061318c6022836123b7565b915061319782613130565b604082019050919050565b600060208201905081810360008301526131bb8161317f565b9050919050565b7f45524332303a20696e73756666696369656e7420616c6c6f77616e6365000000600082015250565b60006131f8601d836123b7565b9150613203826131c2565b602082019050919050565b60006020820190508181036000830152613227816131eb565b9050919050565b7f45524332303a207472616e736665722066726f6d20746865207a65726f20616460008201527f6472657373000000000000000000000000000000000000000000000000000000602082015250565b600061328a6025836123b7565b91506132958261322e565b604082019050919050565b600060208201905081810360008301526132b98161327d565b9050919050565b7f45524332303a207472616e7366657220746f20746865207a65726f206164647260008201527f6573730000000000000000000000000000000000000000000000000000000000602082015250565b600061331c6023836123b7565b9150613327826132c0565b604082019050919050565b6000602082019050818103600083015261334b8161330f565b9050919050565b7f45524332303a207472616e7366657220616d6f756e742065786365656473206260008201527f616c616e63650000000000000000000000000000000000000000000000000000602082015250565b60006133ae6026836123b7565b91506133b982613352565b604082019050919050565b600060208201905081810360008301526133dd816133a1565b9050919050565b60006040820190506133f96000830185612576565b6134066020830184612576565b9392505050565b600060a0820190506134226000830188612634565b61342f6020830187612634565b61343c6040830186612634565b6134496060830185612576565b613456608083018461268b565b9695505050505050565b7f4e487b7100000000000000000000000000000000000000000000000000000000600052601260045260246000fd5b600061349a826124ca565b91506134a5836124ca565b9250826134b5576134b4613460565b5b828204905092915050565b600081905092915050565b7f1901000000000000000000000000000000000000000000000000000000000000600082015250565b60006135016002836134c0565b915061350c826134cb565b600282019050919050565b6000819050919050565b61353261352d8261262a565b613517565b82525050565b6000613543826134f4565b915061354f8285613521565b60208201915061355f8284613521565b6020820191508190509392505050565b60006080820190506135846000830187612634565b6135916020830186612600565b61359e6040830185612634565b6135ab6060830184612634565b95945050505050565b7f4e487b7100000000000000000000000000000000000000000000000000000000600052602160045260246000fd5b7f45434453413a20696e76616c6964207369676e61747572650000000000000000600082015250565b60006136196018836123b7565b9150613624826135e3565b602082019050919050565b600060208201905081810360008301526136488161360c565b9050919050565b7f45434453413a20696e76616c6964207369676e6174757265206c656e67746800600082015250565b6000613685601f836123b7565b91506136908261364f565b602082019050919050565b600060208201905081810360008301526136b481613678565b9050919050565b7f45434453413a20696e76616c6964207369676e6174757265202773272076616c60008201527f7565000000000000000000000000000000000000000000000000000000000000602082015250565b60006137176022836123b7565b9150613722826136bb565b604082019050919050565b600060208201905081810360008301526137468161370a565b9050919050565b7f45434453413a20696e76616c6964207369676e6174757265202776272076616c60008201527f7565000000000000000000000000000000000000000000000000000000000000602082015250565b60006137a96022836123b7565b91506137b48261374d565b604082019050919050565b600060208201905081810360008301526137d88161379c565b905091905056fea26469706673582212205545c4e415597b1ae78a3c7aa066af262445f3f0ec82c5f0d1bbb4e49ddb7b3864736f6c634300080a0033",
  "immutableReferences": {
    "4757": [
      {
        "length": 32,
        "start": 3279
      }
    ],
    "6155": [
      {
        "length": 32,
        "start": 6091
      }
    ],
    "6157": [
      {
        "length": 32,
        "start": 6050
      }
    ],
    "6159": [
      {
        "length": 32,
        "start": 5964
      }
    ],
    "6161": [
      {
        "length": 32,
        "start": 6167
      }
    ],
    "6163": [
      {
        "length": 32,
        "start": 6200
      }
    ],
    "6165": [
      {
        "length": 32,
        "start": 6134
      }
    ]
  },
  "source": "// SPDX-License-Identifier: MIT\r\npragma solidity >=0.4.22 <0.9.0;\r\n\r\nimport \"@openzeppelin/contracts/token/ERC20/extensions/ERC20Votes.sol\";\r\n\r\ncontract GovernanceToken is ERC20Votes{\r\n\r\n    uint256 maxSupply = 100000000000000000000;\r\n\r\n    constructor() ERC20('GovernanceToken', 'GT') ERC20Permit('GovernanceToken'){\r\n        _mint(msg.sender, maxSupply);\r\n    }\r\n    \r\n    function _afterTokenTransfer(address from, address to, uint256 amount ) internal override(ERC20Votes) {\r\n        super._afterTokenTransfer(from, to, amount);\r\n    }\r\n        \r\n    function _mint(address to, uint256 amount) internal override(ERC20Votes) {\r\n    super._mint(to, amount);\r\n    }\r\n    \r\n    function _burn(address account, uint256 amount) internal override(ERC20Votes) {\r\n        super._burn(account, amount);\r\n    }\r\n}",
  "sourcePath": "C:\\Users\\JS\\Desktop\\myDAO\\contracts\\GovernanceToken.sol",
  "compiler": {
    "name": "solc",
    "version": "0.8.10+commit.fc410830.Emscripten.clang"
  },
  "schemaVersion": "3.4.4",
  "updatedAt": "2022-03-05T14:03:18.396Z",
  "networkType": "ethereum",
  "devdoc": {
    "kind": "dev",
    "methods": {
      "DOMAIN_SEPARATOR()": {
        "details": "See {IERC20Permit-DOMAIN_SEPARATOR}."
      },
      "allowance(address,address)": {
        "details": "See {IERC20-allowance}."
      },
      "approve(address,uint256)": {
        "details": "See {IERC20-approve}. NOTE: If `amount` is the maximum `uint256`, the allowance is not updated on `transferFrom`. This is semantically equivalent to an infinite approval. Requirements: - `spender` cannot be the zero address."
      },
      "balanceOf(address)": {
        "details": "See {IERC20-balanceOf}."
      },
      "checkpoints(address,uint32)": {
        "details": "Get the `pos`-th checkpoint for `account`."
      },
      "decimals()": {
        "details": "Returns the number of decimals used to get its user representation. For example, if `decimals` equals `2`, a balance of `505` tokens should be displayed to a user as `5.05` (`505 / 10 ** 2`). Tokens usually opt for a value of 18, imitating the relationship between Ether and Wei. This is the value {ERC20} uses, unless this function is overridden; NOTE: This information is only used for _display_ purposes: it in no way affects any of the arithmetic of the contract, including {IERC20-balanceOf} and {IERC20-transfer}."
      },
      "decreaseAllowance(address,uint256)": {
        "details": "Atomically decreases the allowance granted to `spender` by the caller. This is an alternative to {approve} that can be used as a mitigation for problems described in {IERC20-approve}. Emits an {Approval} event indicating the updated allowance. Requirements: - `spender` cannot be the zero address. - `spender` must have allowance for the caller of at least `subtractedValue`."
      },
      "delegate(address)": {
        "details": "Delegate votes from the sender to `delegatee`."
      },
      "delegateBySig(address,uint256,uint256,uint8,bytes32,bytes32)": {
        "details": "Delegates votes from signer to `delegatee`"
      },
      "delegates(address)": {
        "details": "Get the address `account` is currently delegating to."
      },
      "getPastTotalSupply(uint256)": {
        "details": "Retrieve the `totalSupply` at the end of `blockNumber`. Note, this value is the sum of all balances. It is but NOT the sum of all the delegated votes! Requirements: - `blockNumber` must have been already mined"
      },
      "getPastVotes(address,uint256)": {
        "details": "Retrieve the number of votes for `account` at the end of `blockNumber`. Requirements: - `blockNumber` must have been already mined"
      },
      "getVotes(address)": {
        "details": "Gets the current votes balance for `account`"
      },
      "increaseAllowance(address,uint256)": {
        "details": "Atomically increases the allowance granted to `spender` by the caller. This is an alternative to {approve} that can be used as a mitigation for problems described in {IERC20-approve}. Emits an {Approval} event indicating the updated allowance. Requirements: - `spender` cannot be the zero address."
      },
      "name()": {
        "details": "Returns the name of the token."
      },
      "nonces(address)": {
        "details": "See {IERC20Permit-nonces}."
      },
      "numCheckpoints(address)": {
        "details": "Get number of checkpoints for `account`."
      },
      "permit(address,address,uint256,uint256,uint8,bytes32,bytes32)": {
        "details": "See {IERC20Permit-permit}."
      },
      "symbol()": {
        "details": "Returns the symbol of the token, usually a shorter version of the name."
      },
      "totalSupply()": {
        "details": "See {IERC20-totalSupply}."
      },
      "transfer(address,uint256)": {
        "details": "See {IERC20-transfer}. Requirements: - `to` cannot be the zero address. - the caller must have a balance of at least `amount`."
      },
      "transferFrom(address,address,uint256)": {
        "details": "See {IERC20-transferFrom}. Emits an {Approval} event indicating the updated allowance. This is not required by the EIP. See the note at the beginning of {ERC20}. NOTE: Does not update the allowance if the current allowance is the maximum `uint256`. Requirements: - `from` and `to` cannot be the zero address. - `from` must have a balance of at least `amount`. - the caller must have allowance for ``from``'s tokens of at least `amount`."
      }
    },
    "version": 1
  },
  "userdoc": {
    "kind": "user",
    "methods": {},
    "version": 1
  }
}